:020000040800F2
:100000009804002045010008C90B0008F10A000807
:10001000C50B00080D0A00087D1100080000000053
:10002000000000000000000000000000090D0008B2
:10003000110A000800000000CB0B0008F50D0008B5
:100040005F0100085F0100085F0100085F01000810
:100050005F0100085F0100085F0100085F01000800
:100060005F0100085F0100085F0100085F010008F0
:100070005F0100085F0100085F0100085F010008E0
:100080005F0100085F0100085F0100085F010008D0
:100090005F0100085F0100085F0100085F010008C0
:1000A0005F0100085F0100085F0100085F010008B0
:1000B000590E00085F0100085F0100085F01000899
:1000C0005F0100085F0100085F0100085F01000890
:1000D0005F0100085F0100085F0100085F01000880
:1000E0005F0100085F0100085F0100085F01000870
:1000F0005F0100085F0100085F0100085F01000860
:100100005F0100085F0100085F0100085F0100084F
:100110005F0100085F0100085F0100085F0100083F
:100120005F0100085F0100085F0100085F0100082F
:10013000DFF80CD000F0E2FB004800478D1C0008FF
:10014000980400200648804706480047FEE7FEE77F
:10015000FEE7FEE7FEE7FEE7FEE7FEE7FEE7FEE777
:10016000F90D000831010008F0B480EA0102D40F53
:100170004200B2EB410F02D20246084611464A0045
:1001800042D0C30DDDB2C1F3C752AD1A202D35DA0E
:10019000C1F3160141F4000204B15242C5F1200638
:1001A00002FA06F12A411044B3EBD05F23D0C4B168
:1001B000012DA0EBC35009DCF0BC4FF0004202EA75
:1001C000C352DBB200F5000000F0A4BA400000F119
:1001D000807000EBC350A0F1807040EAD1704900FC
:1001E00009E0490841EAC071A0EBC35000F50000E6
:1001F000400800EBC350F0BC00F083BA614201221A
:1002000002EB4101001BF6E7F0BC704781F00041B2
:10021000AAE780F00040A7E780EA010210B502F0EB
:100220000043400022D04A001FD0010E01EB1261B2
:10023000C0F35600C2F3560240F4000042F400023C
:10024000A0FB022000047F39140400D0401C50EAB7
:10025000124001D44000491EC2B20C0604EBD0107B
:10026000401C4008802A02D003E0002010BD20F08E
:100270000100002900DA0020184310BD30B480EAE4
:10028000010202F0004530F0004221F0004013D09E
:1002900090B1C30DD40DC2F31601C0F31600E41AD9
:1002A00041F4000140F400027D34914201D3641C0A
:1002B00000E04900002C02DA30BC002070474FF407
:1002C00000000023914201D3891A034340084FEAFA
:1002D0004101F7D151B1914202D14FF0004105E007
:1002E00002D24FF0010101E06FF0010103EBC450B5
:1002F000284430BC00F005BA2DE9FE4F804681EA63
:100300000300C00F0C46009021F0004123F000458F
:10031000B8EB0200A94105D24046214690461C4652
:100320000B46024623F00040104347D0270DC7F389
:100330000A00C3F30A510290401A019040286BDA78
:10034000C3F3130040F4801B0098924620B10023B1
:10035000D2EB030A63EB0B0B01985946C0F1400244
:10036000504600F0ADF906460D4650465946019AF2
:1003700000F0B5F910EB08006141002487EA115242
:1003800084EAE7731A4340D0009A62B3019A012AC3
:100390004FEA075215DC001B61EB02014FF00042EF
:1003A00002EA0752CDE90042001C41F580113246B5
:1003B0002B4600F0ECF903B0BDE8F08F4046214633
:1003C000F9E7001B61EB0201001C41F580130018E6
:1003D0005B412018A2F5001747EB030140EAD570F6
:1003E000B6196D4111E06D084FEA360645EAC07551
:1003F0004FEA0752001B61EB0201001C41F580111E
:1004000049084FEA30000019514132462B4603B0EB
:10041000BDE8F04F00F0ACB9009801224000002385
:10042000D0EB020263EBE073009821464FEAE074E0
:10043000B8EB000061EB0401E9E783F000435BE700
:1004400081F0004158E72DE9FE4F81EA030404F0F2
:10045000004421F0004100944FF0000B23F00043D2
:1004600050EA01045ED052EA03045BD0C3F30A549D
:10047000C1F30A552C44A4F2F3340194A0FB0254B6
:10048000C1F3130141F48011C3F3130343F4801348
:1004900001FB024400FB034E840A970A44EA81549C
:1004A00047EA8357A4FB076802958D0A05FB078579
:1004B0004FEA932C04FB0C542705029D4FEA065883
:1004C00047EA1637B5EB08056EEB070C870E920E60
:1004D00047EA811742EA8312A7FB0201B6EB0B0140
:1004E00064EB00042B0D43EA0C335E1844EB1C5004
:1004F000DA465146E7FB0201C5F313044FEA0B331A
:1005000043EA14534FEA0432019C43EA0603A4F180
:100510000C040294009CCDE900B400F038F903B05B
:10052000BDE8F08F00200146F9E72DE9F04D81EAA2
:10053000030404F0004B21F0004514464FF0000A7C
:1005400023F0004150EA050220D054EA01021DD0F8
:10055000C5F30A570246C5F31303C1F31300C1F3F1
:100560000A5640F4801543F48013A7EB0608101BCD
:10057000D64608F2FD3873EB050002D308F10108F6
:1005800001E092185B41B8F1000F03DA0020014648
:10059000BDE8F08D00204FF48011064684460EE041
:1005A000171B73EB050705D3121B63EB050306430B
:1005B0004CEA010C49084FEA300092185B4150EABE
:1005C0000107EDD152EA030012D082EA040083EA67
:1005D0000501084305D0101BAB4106D201220023C0
:1005E00006E000224FF0004302E06FF001025310DA
:1005F0001AEB06004CEB085110EB0A0041EB0B0123
:10060000BDE8F04D00F0B4B896230022114600F08A
:1006100081B820F00040C10DC0F3160040F4000086
:100620007F2901DA00207047962903DCC1F1960189
:10063000C840704796398840704700F0004230F05B
:1006400000400AD0C10D01F56071C0F3160042EA06
:100650000151C2084007114370470020014670470E
:1006600001F0004330B421F0004150EA010206D00D
:100670000A0DA2F56072C1F31301002A02DC30BC3E
:1006800000207047440F44EAC104C100E01830BCA8
:1006900000EBC25000F035B8002801DBC0F100408B
:1006A000002901DBC1F1004181427047002801DBD4
:1006B000C0F10040002901DBC1F1004188427047D0
:1006C000202A04DB203A00FA02F100207047914012
:1006D000C2F1200320FA03F3194390407047202A07
:1006E00006DBCB17203A41FA02F043EAE07306E05A
:1006F00041FA02F3D040C2F120029140084319466A
:1007000070470029A8BF7047401C490008BF20F06F
:100710000100704710B4B0FA80FC00FA0CF050EA07
:10072000010404BF10BC704749B1CCF1200421FA88
:1007300004F411FA0CF118BF012121430843A3EB83
:100740000C01CB1D4FEA00614FEA102042BF002090
:1007500010BC704700EBC35010440029A4BF10BC6C
:100760007047401C490008BF20F0010010BC7047D2
:1007700010B5141E73F1000408DA401C41F10001A9
:1007800092185B411A4301D120F0010010BD2DE900
:10079000F04D92469B4611B1B1FA81F202E0B0FAF7
:1007A00080F220329046FFF78BFF04460F4640EA66
:1007B0000A0041EA0B0153465A46084313D011463A
:1007C00053EA010019D0C8F14002504600F0A8F8E1
:1007D00005460E46504659464246FFF771FF08430C
:1007E00005D0012004E020463946BDE8F08D002008
:1007F000054346EAE0762C4337430A986305E40A4A
:10080000A0EB08000022FD0A44EA47540A3002D552
:1008100000200146E9E7010510196941DDE90845B5
:1008200000196941BDE8F04DA2E770B521F0004321
:1008300003430CD0C1F30A550024D5EB040564EB47
:100840000403D617AD1AB34102DB0020014670BD88
:10085000201841EB025170BD2DE9F04D00231A46DE
:100860001B1A8A4103DB00200146BDE8F08DC1F36D
:100870000A52C1F3130141F480154FF0000BD10768
:1008800002D100186D41521E0027044640F2FF11AC
:10089000384601EB620A3E468046024600204FF48D
:1008A000801100F03DF8C2197141BB1846EB010000
:1008B000B4EB030C75EB000C04D3E41A65EB0005F4
:1008C00017460E46241908F101006D418046342870
:1008D000E3DDF91946EB0600091BA84103D24FF0EE
:1008E000FF32134601E0002213461BEB070046EBE4
:1008F0000A51BDE8F04DFFF73BBF0000064C074D25
:1009000006E0E06840F0010394E8070098471034DF
:10091000AC42F6D3FFF710FC30210008502100084C
:10092000202A04DB203A21FA02F00021704721FA44
:1009300002F3D040C2F120029140084319467047AB
:100940000EB5C10F80EAE0700844CA07002140F2EA
:1009500033438DE80E000A460B46FFF718FF03B03D
:1009600000BD0EB540F2334102910021CDE90011E6
:100970000A460B46FFF70BFF03B000BD70B5C1F38D
:100980000A5201F000450024C1F3130140F2FF3385
:1009900041F480119A4201DA002070BD40F23343E5
:1009A0009A42A2F2334203DC5242FFF7B9FF00E061
:1009B00090402C43F1D0404270BD000070B5044619
:1009C00000200E49086014E00C49096854F8210021
:1009D0000B49FFF753FC05460A49FFF7C5FB0A49D7
:1009E000064A126841F8220004480068401C034986
:1009F0000860024800680528E6D370BD200000208A
:100A0000000010410000A0407000002000BFFEE781
:100A1000704700003048806940F008002E49886126
:100A20000846806940F0100088612C48006820F476
:100A300070002A4908600846006840F40000086019
:100A40000846006820F4706008600846006840F4BA
:100A50000070086008460068214908401F49086086
:100A6000084600681F4908431C490860084600689A
:100A70001D49084319490860081D006820F0CC0092
:100A8000091D08600846006840F0880008600846B4
:100A9000006840F0330008601448006820F070607F
:100AA000124908600846006840F040700860084637
:100AB000006820F4700008600846006840F40010E8
:100AC00008600846006820F070400860084600682A
:100AD00040F080400860704700100240000C014068
:100AE00033FFFF33880000883300003300100140DB
:100AF00000BFFEE74FF08050044908608000808905
:100B000040F00100890588817047000000E100E0A5
:100B100000B511480078A8B11048006800F0200026
:100B200080B14FF47A7001F0A5F80B48007888B1D5
:100B30000A48006800F0200060B1002006490870F3
:100B4000012000BD0548006800F0200010B9012018
:100B5000014908700020F4E754000020080C01400F
:100B60002DE9F04106460D46144629463046FFF76A
:100B70004DFB07462146FFF78FFD0DD284F000475D
:100B800029463046FFF742FB80463946FFF78EFD87
:100B900002D22846BDE8F08129463046FFF786FD9F
:100BA00004D221463046FFF731FB0646294630463F
:100BB000FFF772FD04D221463046FFF7D5FA06460C
:100BC0003046E7E700BFFEE7704770472DE9F04F7A
:100BD00085B004460D46474947480068FFF75CFD6D
:100BE0007ED826460027454801680068FFF714FBB9
:100BF000814629462046FFF70CFB82464049FFF715
:100C00000BFB80464946FFF739FB04903B480168DF
:100C10000068FFF701FB8246384801685046FFF73D
:100C2000FBFA804629462046FFF7F3FA82464FF04A
:100C30004041FFF7F1FA81464146FFF71FFB039061
:100C4000304801680398FFF7E7FA00902A480168E6
:100C50000098FFF7E1FA83462A4801685846FFF7F3
:100C6000DBFA8246244801685046FFF7D5FA8146F0
:100C7000244801684846FFF7CFFA80461E480168BD
:100C80004046FFF7C9FA02901E4801680498FFF732
:100C9000C3FA0090184801680098FFF7BDFA834630
:100CA000184801685846FFF7B7FA824612480168AB
:100CB0005046FFF7B1FA8046124801683846FFF700
:100CC000ABFA83460C4801685846FFF7A5FA8246FE
:100CD0003146FFF749FA81464146FFF745FA00E001
:100CE00006E001900299FFF73FFA05B0BDE8F08FEA
:100CF0002846FAE700002042380000203400002097
:100D00000000404030000020704710B500F002F8AD
:100D100010BD00000CB50020019000903348006821
:100D200040F480303149086000BF3048006800F46A
:100D3000003000900198401C0190009818B901986B
:100D4000B0F5A06FF1D12948006800F4003010B16F
:100D50000120009001E0002000900098012843D17C
:100D60002348006840F010002149086008460068E8
:100D700020F0070008600846006840F002000860A4
:100D80001A48406819494860084640684860084663
:100D9000406840F4806048600846406820F47C1059
:100DA00048600846406840F4E8104860084600681B
:100DB00040F08070086000BF0C48006800F00070D0
:100DC0000028F9D00948406820F00300074948602E
:100DD0000846406840F00200486000BF0348406891
:100DE00000F00C000828F9D10CBD000000100240F2
:100DF000002002407047000010B51348006840F022
:100E000001001149086008464068104908400E4931
:100E10004860084600680E4908400B4908600846CB
:100E2000006820F4802008600846406820F4FE0036
:100E300048604FF41F008860FFF767FF4FF00060C5
:100E40000449086010BD0000001002400000FFF8D7
:100E5000FFFFF6FE08ED00E010B54FF08040008A7D
:100E600000F0010038B14FF08040008A20F001000E
:100E70004FF080410882FFF74BFEF8B14748006908
:100E800040F02000454908614548007808B9012034
:100E900000E000204249087042480088032805D13C
:100EA0000020404908803E49087004E03D48008821
:100EB000401C3C49088000203B49086000203B4919
:100EC00008600EE03A483949096850F8211039485D
:100ED000364A126840F8221034480068401C3349F2
:100EE0000860324800680528ECD34FF07E512E4848
:100EF0000068FFF739F92C49086000202B49086089
:100F000015E02D4A294B1B6852F82310294A274B1C
:100F10001B6852F82300FFF759FE2549234A12683F
:100F200041F8220021480068401C204908601F4801
:100F300000680428E5D3204A51681D4A50684FF0E4
:100F40007E52FFF70DFE1A4948601B480069086190
:100F50000846FFF733FD19490868FFF75AFB18499F
:100F6000088016494868FFF754FB16490880134962
:100F70008868FFF74EFB1349091D08800F49C868B0
:100F8000FFF747FB0F49083108800C490869FFF754
:100F900040FB0C490C31088010BD000000100140DE
:100FA0002C0000203E0000203800002020000020FF
:100FB0000C000020840000205C0000207000002055
:100FC00040040040340800406848C06940F0010017
:100FD0006649C8610846C06940F00200C861084619
:100FE000C06940F00400C8610846C06940F00800CC
:100FF000C8610020890408808880088108840883EB
:101000008883888441F61F40088540F2CF70888528
:10101000002057490880091D0880091D088054498F
:1010200020310880524918310880091D0880504934
:101030002431088041F61F40091D088040F2CF701E
:10104000091D088000204B490880091D0880091DE2
:101050000880484920310880464918310880091D18
:10106000088044492431088041F61F40091D08804A
:1010700040F2CF70091D088000203F490880091DFB
:101080000880091D08803C49203108803A49183100
:101090000880091D088038492431088040F2CF209B
:1010A000091D088042F20F70091D088030481C306D
:1010B000008846F2600108432D491C31088008462B
:1010C000008840F60801084329491C310880081DA2
:1010D000008840F48850091D088026481830008890
:1010E00046F2600108432349183108800846008809
:1010F00040F6080108431F49183108801D48203078
:10110000008840F011001B4920310880081F00882A
:1011100046F26001084317491C31088008460088E0
:1011200040F60801084313491C310880081D008857
:1011300040F48850091D08804806008840F00100EE
:10114000490608800A48008840F0010008490880E4
:101150000848008840F001000649088006480088D9
:1011600040F0010004490880704700000010024070
:101170000004004000080040000C004000BFFEE7F3
:10118000490050EAC12018BF04204A0D18BF40F0A2
:10119000010040F2FF72B2EB515F08BF40F0020065
:1011A000012808BF052070472DE9F74F144694B079
:1011B0000021C4E902111599079121F00045C949A0
:1011C0008D4206DC1599C4E9000117B00020BDE886
:1011D000F08FC549DFF814A3A9423CDD0799C44E3E
:1011E0000029C44FC44A1599534619DDFFF725F964
:1011F000554506D0C14AC24BFFF71FF9C4E90001AB
:101200000AE04FF0D352BE4BFFF717F932463B4688
:10121000FFF713F9C4E9000117B00120BDE8F08F12
:10122000FFF76AF8554506D0B44AB54BFFF764F8A6
:10123000C4E900010AE04FF0D352B14BFFF75CF86C
:1012400032463B46FFF758F8C4E9000117B04FF0AB
:10125000FF30BDE8F08FAB49A942159978DB21F04A
:10126000004183468846A84AA84BFFF7ECF80022C5
:10127000A74BFFF741F8FFF781FB0990FFF760FBF1
:1012800006460F469C4A5346FFF7DDF843465A464A
:10129000FFF7D6F880468A46984A994B3046394639
:1012A000FFF7D1F82A0D01250B9242465346FFF76E
:1012B000C7F8032DC4E9000139D00B98C1F30A51D6
:1012C000401A05EB45111139814230DA9148C34685
:1012D000784400EB0510CDF80CA00C90D0E9002369
:1012E00030463946FFF7AFF802460B4604910690A8
:1012F00058460399FFF7A1F880468A4602460B46F6
:1013000058460399FFF799F8049B069AFFF795F85A
:1013100083460C9803913946D0E902233046FFF703
:1013200092F85A46039BFFF788F86D1CBDE70798B3
:101330000028A2BF099817B0BDE8F08F616881F05E
:1013400000416160099817B04042BDE8F08FFFE7A7
:1013500084461598C1F31301C0F30A50A0F2F5308A
:101360004FEA601800F01F06C6F12000139000201D
:101370000690079041F4801E05206D4676B1664ABE
:1013800008EB00017A4452F8213002EB8101B340AE
:101390004A68139922FA01F1194305E05F4908EB05
:1013A0000002794451F82210A1FB0E27A1FB0C1377
:1013B0001A449A4234BF0123002303EB070A05EBCA
:1013C0008003D3E901B70F448F4234BF01210021CC
:1013D00093448B4411B1934502D903E0934501D264
:1013E000012100E00021C3E901B7514445F8201074
:1013F000011EA0F10100C1DC0298059F00F1005020
:10140000800F12900298DDE903568000FFF798FAEA
:10141000834628460D91FFF7A4FA6FF01D02FFF7EF
:1014200004FACDE90E013046FFF79BFA6FF03D025A
:10143000FFF7FBF980468A463846FFF792FA6FF0CD
:101440005D02FFF7F2F90746424653461191FEF757
:1014500053FFDDE90E23FEF74FFF5A460D9BFEF7C3
:101460004BFF00250E465A4628460D9BFEF7E5FF2A
:10147000DDE90E23FEF7E1FF42465346FEF7DDFFAE
:101480003A46119BFEF7DCFFDFF898A0244A53464A
:10149000FEF7D9FF07468846234A244B31462846A3
:1014A000FEF7D1FF3A464346FEF726FF0746884639
:1014B0004FF0A842534631462846FEF7C4FF3A464D
:1014C0004346FEF719FF159A12F0004F04D0129A06
:1014D00081F0004152421292C4E90001129817B003
:1014E000BDE8F08FFB21E93F7CD90240FB21F93FA9
:1014F0007370032E8A19A33B000040543163621AB3
:1015000061B4D03DFB21394183C8C96D305FE43FF0
:101510000000E03F6C0D0000E80C0000CA0C000069
:10152000182D4454FB21F93D3326A611460B113CDE
:101530002DE9FF4D21F0004807460C46B8F1795FD0
:1015400008DAFFF71BFA002801BF0020324904B077
:10155000BDE8F08D3A46234610461946FEF773FF64
:10156000054602462D480E460B460621784400F0FB
:101570005DF82A463346FEF766FFDDE90223824620
:101580008B4638462146FEF75EFF04460F4652461C
:101590005B4628463146FEF756FF22463B46FEF79D
:1015A0004CFF07468A464FF0FF3228463146FFF788
:1015B0003CF91B4A90450ADA3A465346FEF73DFF8E
:1015C00004B00022BDE8F04D134BFEF739BF154AB9
:1015D0004245A8BFA8F500154FF00004B8BF124D52
:1015E00022462B46FEF729FF0646884622462B4612
:1015F00000200949FEF721FF04460D463A465346AE
:1016000030464146FEF719FF04B022462B46BDE89E
:10161000F04DFEF715BF00000000F03FA00A0000EB
:101620003333D33F0000E93F0000D23F2DE9F041C2
:101630004F1E00EBC7010446D1E9000115461E46C6
:1016400037F006020DD02A463346FEF7FCFE7F1E19
:1016500004EBC703D3E90023FEF74EFE37F0060282
:10166000F1D1022F25D0042F13D0062F18BFBDE8CB
:10167000F0812A463346FEF7E6FED4E90A23FEF758
:101680003BFE2A463346FEF7DEFED4E90823FEF78A
:1016900033FE2A463346FEF7D6FED4E90623FEF78C
:1016A0002BFE2A463346FEF7CEFED4E90423FEF78E
:1016B00023FE2A463346FEF7C6FED4E90223FEF790
:1016C0001BFE2A463346FEF7BEFED4E90023BDE8E2
:1016D000F041FEF711BE00002DE9FF4D054621F057
:1016E000004084B00C46B0F1795F0BDA2846FFF772
:1016F00047FD042808BF00F06FF8284608B02146CF
:10170000BDE8F08D2A460B461046FEF79CFE0646C5
:101710000F462A462346FEF796FE804626488A460E
:1017200032463B4605217844FFF780FF83461098F8
:10173000029160B3214A224B40465146FEF783FE98
:10174000CDE900015A4640465146029BFEF77BFE1A
:1017500082468846DDE906014FF0FF32FFF765F863
:1017600052464346FEF769FE32463B46FEF76BFEA5
:10177000DDE90623FEF761FEDDE90023FEF75DFEED
:1017800008B02A462346BDE8F04DFEF759BE0B4689
:101790005A4630463946FEF756FE084A084BFEF7D1
:1017A000ABFD42465346FEF74EFE08B02A4623469E
:1017B000BDE8F04DFEF7A0BDDE09000049555555C6
:1017C0005555C5BF0122FFF730B800221346104619
:1017D0001146FEF7AABE0000024A00201107FFF7DB
:1017E00024B8000001FDFFFF02E008C8121F08C175
:1017F000002AFAD170477047002001E001C1121F92
:10180000002AFBD1704700000149086070470000C2
:10181000580000202DE9F04D0546DFF8388221F010
:1018200000408D4F82B00C46404520DBA0EB080104
:1018300029430BD08949884201DC10D17DB102B027
:1018400028462146BDE8F04DFFF7BCBF002CC7BFBE
:10185000002001468248394602B0BDE8F08D0120E3
:10186000FFF7D2FF02B0BDE8F04DFFF7AEBF7D49F4
:10187000884244DA7C498142A1BF79487B4902B061
:10188000BDE8F08D2A46234610461946FEF7DBFDDB
:101890008346024676480E460B4606217844FFF7FB
:1018A000C5FE5A463346FEF7CEFD074671488A46C6
:1018B0005A46334604217844FFF7B8FE5A46334669
:1018C000FEF7C1FD00224346FEF716FD02460B4619
:1018D00038465146FEF729FE2A462346FEF7B3FD59
:1018E000654A664BFEF7ACFD2A462346FEF7A8FD87
:1018F00002B05B4ABDE8F04D5C4BFEF7A1BD002C89
:101900004FF000024BDA4646434628462146FEF792
:10191000F3FC4FF0FF32FEF788FF044602465848BA
:101920000D460B4606217844FFF780FE22462B46E3
:10193000FEF789FD804653488A4622462B460421FD
:101940007844FFF773FE22462B46FEF77CFD00220B
:101950003346FEF7D1FC06468B462046294600F06A
:10196000E7FA04460D4632465B4640465146FEF7CE
:10197000DCFD22462B46FEF766FD3F4A3F4BFEF755
:101980005CFD22462B46FEF7B7FC0122FEF74DFF19
:1019900002B03B46BDE8F04D314AFEF751BD2D4B3C
:1019A00028462146FEF74CFD4FF0FF32FEF73DFF83
:1019B00005460E4600F0BCFA00270C4680463A4623
:1019C0000B46FEF799FC82468B463A462346104664
:1019D0001946FEF738FD2A463346FEF731FD5246DA
:1019E0005B46FEF7A2FD824627488B462A463346D1
:1019F00006217844FFF71AFE2A463346FEF723FDF8
:101A0000CDE9000121482A46334604217844FFF7F6
:101A10000DFE2A463346FEF716FD00220D4BFEF75B
:101A20006BFC02460B46DDE90001FEF77EFD4246F7
:101A30002346FEF708FD52465B46FEF75DFC3A463C
:101A40002346FEF759FC02B00122BDE8F04DFEF737
:101A5000ECBE00000000F03FFB2109400000F07FD9
:101A6000182D44540000E03F0000603CFB21F93F8A
:101A70002007000036070000075C143326A6913CBF
:101A800096060000AC060000CA050000E005000054
:101A90002DE9F04F8FB004468946924651462648BC
:101AA000FEF7B4FB8346FEF7C8FD0746234A244BE6
:101AB000FEF7C9FC0022234BCDE90001FEF735FDFE
:101AC000CDE9020100F088F805460E464FF080414E
:101AD0002046FEF7A1FB80464946FEF79DFB0746E0
:101AE000FEF7ABFD2A463346CDE90401FEF7ABFC19
:101AF000CDE9080149464846FEF78EFB06462146D9
:101B00002046FEF789FB07463146FEF72DFB0546CA
:101B1000FEF793FDCDE90601DDE90823FEF78DFC14
:101B2000CDE90A0100F004FACDE90C01FEF798FDB9
:101B30000FB0BDE8F08F00000000B4421F85EB51EC
:101B4000B81E0940008066402DE9F04F8BB08146F9
:101B50008A4614464FF080414846FEF75DFB5146E9
:101B60000390FEF759FB834621462046FEF754FBBF
:101B7000514603905046FEF74FFB494601904846B8
:101B8000FEF74AFB00900199FEF7EEFA02900399E6
:101B9000FEF73CFB59460490FEF770FB0590FEF7FC
:101BA0004CFDCDE90601FFF735FE0022074BCDE9DC
:101BB0000801FEF748FC0746054A064BFEF7B5FC50
:101BC0000546FEF74DFD0BB0BDE8F08F0080664086
:101BD0001F85EB51B81E094000B5244B21F000428F
:101BE00087B09A42DCBF0022134629DD204B9A427F
:101BF00008D140B94FF00100FFF706FEFFF7E5FD01
:101C000007B000BD03DBFFF7DDFD07B000BD02AA92
:101C1000FFF7CAFA10F0030104BF0DF1080C9CE8AD
:101C20000F000DD0012001290ED0022914D00DF192
:101C3000080C00909CE80F00FFF74EFD07B000BDB8
:101C4000FFF776FC07B000BD0DF1080C00909CE892
:101C50000F00FFF741FD05E00DF1080C9CE80F00B7
:101C6000FFF766FC07B081F0004100BDFB21E93FB2
:101C70000000F07F0021044A118000BF024909885A
:101C80008142FBD370470000240C0040FEF7C2FEE7
:101C9000FFF79AF9FEF72EFF17E18C48008801281C
:101CA0007ED10A208A49088000208A49086015E010
:101CB00000208949086008E04FF47A70FFF7DAFFE6
:101CC00085480068401C84490860834800680A28E9
:101CD000F2D380480068401C7E4908607D48006857
:101CE0003228E5D340207D4908610220FFF7C2FF7A
:101CF00040207A49486100207949088006E0784808
:101D0000008841F27071884200DD05E07348806808
:101D100000F080000028F2D000BF00207049088049
:101D200000BF6E48806800F080000028F9D16C4840
:101D300000886C4908606C48006800F01FF905468F
:101D40006849096801EB81014800FEF75DFC064621
:101D50002946FEF761FA04466449FEF78FFA6449A2
:101D6000086041F27070FFF785FF0F205849088026
:101D700000205849086017E000205749086008E033
:101D80004FF47A70FFF776FF53480068401C5249C1
:101D90000860514800680A28F2D34E48006800E005
:101DA0006CE0401C4B4908604A4800683228E3D385
:101DB00040204A4908610220FFF75CFF4020474964
:101DC000486100204649088006E04548008841F205
:101DD0007071884200DD05E04048806800F08000B6
:101DE0000028F2D000BF00203D49088000BF3B48DA
:101DF000806800F080000028F9D13948008839490E
:101E000008603948006800F0B9F8054635490968A6
:101E100001EB81014800FEF7F7FB06462946FEF775
:101E2000FBF904463149FEF729FA3249086041F2CC
:101E30007070FFF71FFF304802682D4801682D4879
:101E40000068FFF725FE2D490860294802682948E7
:101E500001682A480068FFF777FE294908601F4893
:101E6000006940F400101D49086118480088401CB2
:101E70001649088000202349087026E02148007890
:101E800088B92148006840F004001F4908601F48D5
:101E90001F4908601F4848601F4888601B48C86089
:101EA0001E48086111E01848006840F48020164977
:101EB00008601348006816490860194848601948C6
:101EC00088601948C86019480861E6E63E000020AD
:101ED0003C040040240000202000002000100140AD
:101EE000240C0040000000200400002000409C461C
:101EF000500000204C00002040000020480000203E
:101F0000440000202C000020100C01400000B442CE
:101F10005C00002000008C420000204300001B43B6
:101F20000000C8420000344300002A430000F04291
:101F30002DE9F04106460F46FEF78EFC041E0D46C5
:101F400018BF0120284320F00040C0F17F6000F15D
:101F5000E040C00F0ED0301C18BF0120384320F0E5
:101F60000040C0F17F6000F1E040C00F04BF0120DD
:101F7000FFF74AFC20462946BDE8F0812DE9F14FE4
:101F80000098FEF75AFB8046094A0A4BFEF75BFAB7
:101F900006464FF03332084BFEF7AEF904460022F6
:101FA000064BFEF74AFA8246FEF75AFBBDE8F88F69
:101FB00085EB51B81E85E33F33B774400000F03F16
:101FC000555555555555C53F7D6FEB0312D6D4BFBA
:101FD0005544880E55C1C93F3B8F68B52882A4BFC0
:101FE00088B20175E0EF493F09F7FD0DE13D023F81
:101FF0004B2D8A1C273A03C0C88A599CE52A004009
:1020000059018D1B6C06E6BF82922EB1C5B8B33F55
:102010004C5555555555A53F7751C1166CC156BF06
:102020009015CB19A001FA3EAD529C804F7E92BE16
:10203000C4B1B4BD9EEE213ED43888BEE9FAA8BD35
:1020400000004054FB21F93F3163621A61B4D03D76
:102050000000601A61B4D03D7370032E8A19A33B4F
:102060000000002E8A19A33BC14920259A837B39A1
:1020700000000000000000006E83F9A22915444E04
:10208000D15727FCC0DD34F5999562DB4190433C84
:10209000AB6351FE61C5BBDE3A6E24B7E0D24D4260
:1020A000EA2E49061C92D1091CEB1DFE3EA729B160
:1020B000F53582E88444BB2E26709CE9417E5FB4EE
:1020C00039D69139F43953838B5F849C3B28F9BD11
:1020D000FF97F81F0F9805DE8B112FEF1F6D0A5A1F
:1020E000CF7E366DB709CB27663F464F2DEA5F9E00
:1020F000C7BA27757BF1E5EBF739073DEA92528ABB
:10210000B15FFB6B085D8D1FA6F810111111813FA7
:10211000D561C119A0012ABF7DFEB157E31DC73E9D
:10212000EB9C2B8AE6E55ABE7CD5CF5A3AD9E53DE1
:1021300050210008000000205C000000E8170008A3
:10214000AC2100085C0000203C040000F8170008E7
:10215000000000000000A041000000000000B442A8
:1021600000008C42000020430000B44200001B43EA
:10217000000000000000000000000000000000005F
:102180000000A04100803B4500000000000000006E
:102190000000344200000000000000000000004188
:0C21A0000000F041010000000000000001
:0400000508000131BD
:00000001FF
