:020000040800F2
:10000000C8070020F528000805110008071100089E
:100010000B1100080F110008131100080000000068
:1000200000000000000000000000000017110008A0
:1000300019110008000000001B110008EB0C00085B
:100040000F2900080F2900080F2900080F290008B0
:100050000F2900080F2900080F2900080F290008A0
:100060000F2900080F2900080F2900080F29000890
:100070000F2900080F2900080F2900080F29000880
:100080000F2900080F2900080F2900080F29000870
:100090000F2900080F2900080F2900080F29000860
:1000A0000F2900080F2900080F2900080F29000850
:1000B000650D00080F2900080F2900080F29000806
:1000C0000F2900080F2900080F2900080F29000830
:1000D0000F2900080F2900080F2900080F29000820
:1000E0000F2900080F2900080F2900080F29000810
:1000F0000F2900080F2900080F2900080F29000800
:100100000F2900080F2900080F2900080F290008EF
:100110000F2900080F2900080F2900080F290008DF
:100120000F2900080F2900080F2900080F290008CF
:1001300000F002F800F03AF80AA090E8000C8244BF
:100140008344AAF10107DA4501D100F02FF8AFF29C
:10015000090EBAE80F0013F0010F18BFFB1A43F0A5
:1001600001031847DC490000FC490000103A24BF95
:1001700078C878C1FAD8520724BF30C830C144BF0C
:1001800004680C607047000000230024002500264E
:10019000103A28BF78C1FBD8520728BF30C148BFEA
:1001A0000B6070471FB51FBD10B510BD02F00AFCF3
:1001B0001146FFF7F7FF00F08EFB02F028FC03B4B6
:1001C000FFF7F2FF03BC02F02BFC00002DE9F04129
:1001D00004460D460020FE49087017E0FC490978E6
:1001E00054F82100FB4904F03DF80746FA4903F0B2
:1001F000CBFF0646F94904F0B3F9F549097845F80B
:100200002100F3480078401CF1490870F04800785C
:100210000628E3DBBDE8F0812DE9F04106460D46F6
:1002200014462946304604F0A3FA0746214604F056
:1002300063F90DD284F000472946304604F098FA5D
:100240008046394604F058FA02D22846BDE8F081CB
:100250002946304604F050FA04D22146304604F0D4
:1002600087FA06462946304604F046F904D221466C
:10027000304603F089FF06463046E7E72DE9F041B6
:1002800004460D4616461F463DB1D54A21685068C2
:10029000D44AFFF7C1FFD2494860FEB1D04A616835
:1002A0005069D04AFFF7B8FFCD494861CC4AA168F0
:1002B000506ACC4AFFF7B0FFC9494862C84AE168B2
:1002C000506BC84AFFF7A8FFC5494863C44A216973
:1002D000506CC44AFFF7A0FFC14948643FB1C04A0F
:1002E0006169506DC04AFFF797FFBD494865BDE899
:1002F000F08110B50446BA4A6168506904F074F898
:1003000013D1B74AA168506A04F06EF80DD1B44A0F
:10031000E168506B04F068F807D1B14A2169506C6C
:1003200004F062F801D1012010BD0020FCE700229A
:10033000A74B1A700CE0A64A127851F82220A44B61
:100340001B7840F82320A24A1278521CA04B1A7046
:100350009F4A1278062AEEDB70472DE9F04186B0FD
:1003600004460D4616461F46DDF830806946204695
:10037000FFF72CFF69469D48FFF7D9FF3B46324601
:1003800029469A48FFF77AFF282000F069FD974830
:10039000FFF7AFFF012816D1944A1168904A5068C0
:1003A00004F022F80FD101231A4619468F48FFF7AF
:1003B00065FF8E4A51698A4A506D04F015F802D1E2
:1003C0008B4981F8008006B0BDE8F08130B587B078
:1003D00004460D4686480078E8B9214601A8FFF793
:1003E000A6FF81480690012000231A46014600908E
:1003F00001A8FFF7B2FF7D4A1168794A506803F0FF
:10040000F3FF07D10120002302460146009001A816
:10041000FFF7A3FF62E07648007801281DD118227B
:10042000744901A802F086FA20680190606906907C
:100430000220002301221946009001A8FFF78DFF3A
:100440006A48FFF756FF38B1022000230122114607
:10045000009001A8FFF781FF40E06548007802287E
:100460001DD1294601A8FFF762FF634806900320CB
:1004700000231A460121009001A8FFF76EFF5B4A96
:100480001168574A506803F0AFFF07D103200023DB
:1004900001221146009001A8FFF75FFF1EE05448BB
:1004A000007803281AD118225249183101A802F005
:1004B00041FA0420002301221946009001A8FFF709
:1004C0004CFF4A48FFF715FF38B1042000230122F2
:1004D0001146009001A8FFF740FF00BF07B030BDF4
:1004E0002DE9F04F9BB005460C4628681A906868C5
:1004F0001990A868189041481790414816904148B3
:100500001590414814901A9803F012FECDE90801A5
:10051000199803F00DFECDE90601DDE9082302F08C
:10052000CDFECDE90A0103F04DF813901A99084663
:1005300004F016F806901999084604F011F8059091
:10054000069903F021FE079003F0F2FDCDE90801C2
:1005500003F012F8CDE90A0103F034F8129018986C
:1005600011902A4810904CE1109803F0E1FDCDE97C
:10057000000102F0B1FFCDE90401149803F0D8FDA9
:10058000CDE90201DDE9042303F0F8FACDE9080121
:10059000129803F0CDFDCDE90601DDE9082303F053
:1005A000DDFCCDE90A0103F00DF80646109803F0D2
:1005B000BFFDCDE9000102F041FFCDE9040114982F
:1005C00003F0B6FDCDE90201DDE9042320E00000DF
:1005D00000000020000010410000A0400000C842C0
:1005E00070000020000020410000B442F000002014
:1005F0001C0000204C49000800007042CDCC08418E
:1006000000002841CDCC1C4133336B41C3F548C0B9
:1006100003F0B4FACDE908011799119804F0A8F88D
:10062000059003F085FDCDE90601DDE9082303F01F
:1006300095FCCDE90A0102F0C5FF07464FF0804066
:10064000169903F08DFF0990159903F089FF0B901F
:100650001599084603F084FF09901699084603F09F
:100660007FFF39460790384603F07AFF3146059000
:10067000304603F075FF0490059903F085FD069060
:10068000079904F075F80890099904F071F80A9038
:100690000B9903F0E7FD80464146404603F060FFBA
:1006A0004FF07E510B9003F027FF7CD2414640462D
:1006B00003F056FF4FF07E51069004F04EF807907D
:1006C00003F036FDCDE9080102F056FFCDE90A013D
:1006D00002F078FF0F90404603F02AFDCDE90801B3
:1006E0000F9803F025FDCDE90601DDE9082302F0AE
:1006F000E5FDCDE90A0102F065FF8246504603F0B0
:1007000017FDCDE9000102F099FECDE9040115982D
:1007100003F00EFDCDE90201DDE9042303F02EFA1A
:10072000CDE90801169803F003FDCDE90601DDE9E6
:10073000082302F079FFCDE90A0102F043FF0E9091
:10074000504603F0F5FCCDE9040102F0C5FECDE909
:100750000801159803F0ECFCCDE90601DDE908235A
:1007600003F00CFACDE90A0102F02CFF0D900E986F
:1007700003F0DEFCCDE908010D9803F0D9FCCDE9CA
:100780000601DDE9082302F099FDCDE90A0102F036
:1007900019FF0C900C9803F0CBFCCDE9080138460A
:1007A00003F0C6FC00E01EE0CDE90401304603F092
:1007B000BFFCCDE90201DDE9042302F07FFDCDE9B4
:1007C0000601DDE9082303F0C9FBCDE90A0102F0C7
:1007D000F9FE81464946109803F0CAFF51460B9036
:1007E00003F0C6FF8346109803F0A2FC564A574B0D
:1007F000CDE9080102F018FFCDE90A0102F0E2FE9E
:100800001090109803F094FC514A524BCDE90A0124
:1008100003F078F9FFF4A8AE139803F089FC4C4A72
:100820004C4BCDE9060102F0BBFF00224A4BCDE95B
:10083000080103F0A3F9CDE90A0102F0C3FE20602C
:10084000484603F075FC424A424BCDE9040102F0F0
:10085000A7FF0022404BCDE9060103F08FF90022EB
:100860003E4BCDE9080102F0DFFECDE90A0102F0BE
:10087000A9FE6060504603F05BFC354A354BCDE97C
:10088000040102F08DFF0022334BCDE9060103F095
:1008900075F90022314BCDE9080102F0C5FECDE922
:1008A0000A0102F08FFEA060584603F041FC284A7E
:1008B000284BCDE9060102F073FF0022264BCDE95B
:1008C000080103F05BF9CDE90A0102F07BFEE0606C
:1008D0001BB0BDE8F08F00F053F800F055F800F0C1
:1008E00057F81F4800681F4948601D4841681D4867
:1008F00041611B4881681B4841621948C168194819
:100900004163174801691748416415484169154812
:10091000416515491548FFF7E3FD15491548FFF7EF
:10092000DFFD154810490861486111490861134805
:10093000486107E000F060F800F024F90C490A482B
:10094000FFF744FDF6E700007B14AE47E17A843FF1
:100950001F85EB51B81E094000806640008056405C
:10096000040000207000002038010020200000203A
:10097000500100202C0000200000B4420000704212
:1009800010B500F08DF910BD10B500F07BFA10BD68
:1009900010B50020154908701EE015481549134A86
:1009A000127801EB021108601249104A127801EB2B
:1009B0000211486000200F490C4A127801EB021125
:1009C00088600C49094A127801EB0211C860074897
:1009D0000078401C05490870044800780828DCDBD2
:1009E00000F0C5FA00F08AF910BD000001000020F7
:1009F0000000FA437000002070B54FF48071A048E9
:100A000000F051FE00285AD1322000F029FA4FF4AC
:100A100080719B4800F047FE002850D100F06BF930
:100A20009849086023E000F066F996490968401A81
:100A3000B0F5FA7F1BD300F05EF992490968401ABD
:100A40004FF4FA71B0FBF1F201FB120078B98E4954
:100A5000086D8E4903F098FB8B490546086503F045
:100A6000F7FC044600222146052000F0BEFA4FF4B0
:100A70008071834800F017FE0028D4D08249486D69
:100A800003F0E6FC044600222146052000F0ADFA02
:100A900000F031F97B490968401AB0F5FA7F0ED2AF
:100AA0007949086D7A4903F06FFB054603F0D0FCE5
:100AB00004464FF4FA722146052000F096FA4FF4EE
:100AC00000616F4800F0EFFD00285AD1322000F09D
:100AD000C7F94FF400616A4800F0E5FD002850D1E5
:100AE00000F009F96749086023E000F004F965495E
:100AF0000968401AB0F5FA7F1BD300F0FCF8614991
:100B00000968401A4FF4FA71B0FBF1F201FB1200D0
:100B100078B95D49086D5D4903F02AFE5A490546DA
:100B2000086503F095FC044600222146052000F0EC
:100B30005CFA4FF40061524800F0B5FD0028D4D0B3
:100B40005149486D03F084FC0446002221460520EB
:100B500000F04BFA00F0CFF84A490968401AB0F5A6
:100B6000FA7F0ED24849086D494903F001FE054657
:100B700003F06EFC04464FF4FA722146052000F0A3
:100B800034FA70BD70B54049424A127801EB021147
:100B90008868002103F028FC71D03B493D4A127857
:100BA00001EB021108683C4903F0A6FD06D23A4861
:100BB0003549384A127801EB021108603249354A4A
:100BC000127801EB02110868344903F095FC06D253
:100BD00032482D492F4A127801EB021108602A4A47
:100BE0002C4B1B7802EB03129168274A294B1B7888
:100BF00002EB0312906803F0C7FA064600F0E7F92B
:100C00000446214A234B1B7802EB031251681E4A0B
:100C1000204B1B7802EB0312106803F0A9FD064677
:100C200000F0D5F90546214603F066FC13D81648B6
:100C30001849097800EB011000681349154A127829
:100C400001EB0211486000200F49124A127801EBB3
:100C50000211886013E00C4A0E4B1B7802EB031262
:100C60009168094A0B4B1B7802EB0312506803F0A2
:100C70008BFA0549074A127801EB0211486070BDF2
:100C800000080140380000207000002000002041D2
:100C90000000C8420100002000101C450000FA437B
:100CA00030B56649B1F1807F00D31DE021F07F406F
:100CB000401E4FF0E022506150170F22002807DA43
:100CC00013071D0E5E4B00F00F04241F1D5503E09B
:100CD00013071C0E5B4B1C5400BF00204FF0E0229A
:100CE00090610720106100BF30BD57480068401C6C
:100CF0005549086070475448006870471FB5012186
:100D0000084600F086FB44F62060ADF80800472056
:100D1000ADF804000020ADF80A00ADF8060001A906
:100D20004FF0804000F04EFE00214FF0804001F077
:100D3000A5FA01221146900701F0BBF91C208DF89D
:100D4000000000208DF8010003208DF80200012032
:100D50008DF80300684601F074FC0121880701F05A
:100D60008DF91FBD10B50121880701F050FC002846
:100D700063D00121880701F05BFC3449344A1278C2
:100D800001EB02114868334903F0B6FC06D2314842
:100D90002E492F4A127801EB021148602B492C4A48
:100DA000127801EB021148682B4903F0A5FB06D22B
:100DB00029492648264A127800EB0210416027484C
:100DC000007880B92149224A127801EB0211486863
:100DD00003F05AFB4FF08041888501211C480078C0
:100DE00000F06EF81AE01949194A127801EB021165
:100DF000486803F049FB40F6C4110C1A142C00DAC1
:100E000014244FF080418C8500211148007800F0B7
:100E100057F80F480078401C0D4908700C480078BE
:100E2000082802DB00200A4908700C48007808B93D
:100E3000012000E000200949087010BD40190100A0
:100E400018ED00E000E400E03C000020700000200D
:100E50000100002000101C450000FA434000002063
:100E600010B50446FFF747FF0549086000BFFFF7CC
:100E700042FF0349096821448842F8D110BD0000AF
:100E80004400002008B50121042000F0B5FA4FF419
:100E90008070ADF8000048208DF8030003208DF825
:100EA00002006946054800F06BFB4FF40060ADF8A6
:100EB00000006946014800F063FB08BD00080140DE
:100EC00070B504460D4645B3062C24D2DFE804F085
:100ED00003080E14191E0821834800F0FEFB1BE0D6
:100EE0004FF48071804800F0F8FB15E04FF400717A
:100EF0007D4800F0F2FB0FE040217B4800F0EDFB65
:100F00000AE08021784800F0E8FB05E010217648EF
:100F100000F0E3FB00E000BF28E0062C24D2DFE86D
:100F200004F003080E14191E08216F4800F0D7FBC7
:100F30001BE04FF480716C4800F0D1FB15E04FF4DA
:100F40000071694800F0CBFB0FE04021664800F0DB
:100F5000C6FB0AE08021644800F0C1FB05E01021D7
:100F6000614800F0BCFB00E000BF00BF70BD08B5E9
:100F70000121092000F040FA01215C4800F0D1FB7A
:100F80004FF47670ADF8000003208DF802001020B9
:100F90008DF803006946544800F0F2FA0021084633
:100FA000FFF78EFF00210120FFF78AFF00210220BA
:100FB000FFF786FF00210320FFF782FF00210420B6
:100FC000FFF77EFF00210520FFF77AFF08BD10B56F
:100FD00004460021204603F08FFB01D2204610BDBD
:100FE0004349204603F0BCFAF9E72DE9FF470446E0
:100FF00089469246082C75DA40F6C410814571DCAA
:10100000B9F5FA7F6EDB800082456BDA484603F063
:101010005BFA0546374800EB04104168284603F0A8
:10102000E3F90BD1484602F042FD0746324A334B02
:1010300002F0FAFA054602F00BFD814640F6C110B7
:10104000814500DD8146B9F5FA7F01DA4FF4FA797E
:10105000BAF1140F13DA484603F036FA254901EBCA
:1010600004110860484603F02FFA224901EB0411ED
:10107000486000201F4901EB0411886032E04846B7
:1010800003F022FA1B4901EB04110860194800EB38
:101090000410C0F80CA0174901EB0411C86802F055
:1010A00006FD05460022164B02F07AFB114A02EBC0
:1010B0000412CDE9020151680E4A02EB04121068D5
:1010C00003F056FB054603F033F8CDE90001DDE9F6
:1010D000022302F065FB074602F074FA054901EBB2
:1010E00004118860BDE8FF87000C01400004300057
:1010F000000080BF70000020D200DE02098A7F3F1E
:1011000000003440704700BFFEE700BFFEE700BFAD
:10111000FEE700BFFEE7704770477047DF48006892
:1011200040F00100DD49086008464068DC4908409D
:10113000DA49486008460068DA490840D74908603B
:101140000846006820F4802008600846406820F4C3
:10115000FE0048604FF41F0088607047CF4909685F
:1011600021F48031CD4A11601146096821F48021B3
:101170001160B0F5803F03D0B0F5802F0ED106E0AE
:10118000C649096841F48031C44A116007E0C34987
:10119000096841F4A021C14A116000E000BF00BF0E
:1011A000704710B501460022002300204A11012A91
:1011B00002D1BA4C236806E0022A02D1B74C236A56
:1011C00001E0B64C636A01F01F02012494401C4008
:1011D0000CB1012000E0002010BD38B500200090C7
:1011E0000024002500BF3120FFF7DBFF05460098F3
:1011F000401C00900098B0F5A06F01D0002DF2D0F7
:101200003120FFF7CEFF08B1012400E00024204682
:1012100038BD01460020A14A106820F0F80040EADD
:10122000C10010607047A049086070470246002066
:101230009A4B586820F47C1042EA01031843974BFC
:101240005860704798490866704701460020934AE5
:10125000506820F003000843506070478F48406892
:1012600000F00C007047014600208C4A506820F0C6
:10127000F00008435060704701460020874A5068DC
:1012800020F4E06008435060704701460020834A24
:10129000506820F4605040EAC1005060704729B1A6
:1012A0007E4A527A02437D4B5A7204E07B4A527A5C
:1012B00082437A4B5A7270477B49D8310860704735
:1012C00001460020754A506820F4404008435060B1
:1012D00070470021714A20321170704A82F8201044
:1012E000012802D004280AD104E001216B4A2032EF
:1012F000117005E00521694A2032117000E000BF3D
:1013000000BF70476949086070476449096A014332
:10131000624A11627047654944390860704730B5C8
:1013200000210022002400235C4D6D6805F00C01B3
:1013300021B1042905D0082923D105E05C4D0560C1
:1013400022E05B4D05601FE0544D6D6805F470129E
:10135000524D6D6805F48034022505EB92421CB9AC
:10136000544D554305600BE04C4D6D6805F4003558
:101370001DB1504D5543056002E04D4D554305608C
:1013800002E04B4D056000BF00BF444D6D6805F0A5
:10139000F0010909484D6B5C0568DD4045603F4D33
:1013A0006D6805F4E061090A434D6B5C4568DD40FA
:1013B00085603A4D6D6805F46051C90A3E4D6B5C1D
:1013C0004568DD40C560354D6D6805F44041890BC9
:1013D0003A4D6B5CC568B5FBF3F5056130BD29B1CD
:1013E0002E4A526902432D4B5A6104E02B4A52693E
:1013F00082432A4B5A61704729B1284A92690243B5
:10140000264B9A6104E0254A92698243234B9A61F4
:10141000704729B1214AD2690243204BDA6104E0C6
:101420001E4AD26982431D4BDA61704729B11B4ABB
:10143000D2680243194BDA6004E0184AD26882434A
:10144000164BDA60704729B1144A12690243134BF4
:101450001A6104E0114A12698243104B1A61704705
:1014600012494039086070470F49C86470470B49FA
:10147000C87170470948406A40F080700749486267
:10148000704701460020054A92680A400AB10120CF
:1014900000E0002070470149887270470010024048
:1014A0000000FFF8FFFFF6FE0000424280044242C7
:1014B00000127A0000093D0048000020580000207A
:1014C00010B50446CC48844208D101210420FFF71E
:1014D000ADFF00210420FFF7A9FF46E0C748844282
:1014E00008D101210820FFF7A1FF00210820FFF704
:1014F0009DFF3AE0C248844208D101211020FFF745
:1015000095FF00211020FFF791FF2EE0BD48844297
:1015100008D101212020FFF789FF00212020FFF7BB
:1015200085FF22E0B848844208D101214020FFF71E
:101530007DFF00214020FFF779FF16E0B348844289
:1015400008D101218020FFF771FF00218020FFF7E3
:101550006DFF0AE0AE48844207D101218015FFF7F4
:1015600065FF0021A015FFF761FF10BD10B5012137
:101570000846FFF75BFF00210120FFF757FF10BD72
:101580002DE9F0410246002500260020002300241A
:10159000002791F803C00CF00F0591F803C00CF080
:1015A000100CBCF1000F03D091F802C04CEA050505
:1015B00091F800C0BCF1000F31D0146800202BE07E
:1015C0004FF0010C0CFA00F3B1F800C00CEA03066E
:1015D0009E4220D183004FF00F0C0CFA03F7BC435E
:1015E00005FA03FC4CEA040491F803C0BCF1280F8F
:1015F00006D14FF0010C0CFA00FCC2F814C00AE04E
:1016000091F803C0BCF1480F05D14FF0010C0CFA62
:1016100000FCC2F810C0401C0828D1D31460B1F8F7
:1016200000C0BCF1FF0F34DD546800202EE000F153
:10163000080C4FF0010808FA0CF3B1F800C00CEAEE
:1016400003069E4221D183004FF00F0C0CFA03F7E2
:10165000BC4305FA03FC4CEA040491F803C0BCF156
:10166000280F05D100F1080C08FA0CF8C2F8148014
:1016700091F803C0BCF1480F07D100F1080C4FF0FE
:10168000010808FA0CF8C2F81080401C0828CED3D4
:101690005460BDE8F0814FF6FF7101800221817036
:1016A0000421C17070470246002093680B400BB1C3
:1016B000012000E0002070470146886880B2704732
:1016C00002460020D3680B400BB1012000E000204F
:1016D00070470146C86880B2704701617047416138
:1016E00070470AB1016100E041617047C160704715
:1016F0004FF480320A43826181618261826982692A
:10170000704702460020434B18684FF6807318401C
:1017100040EA021008433F4B186070473E49C861D9
:101720007047F0B50A46002300240021002500F090
:101730000046B6F1004F02D1364EF16901E0354E58
:101740007168C0F3034583B200F44016B6F5401F3C
:1017500008D121F070612F4E766826F070662D4F0B
:101760007E6012E000F48016B6F5801F06D10326D5
:1017700006FA05F4A14341F0706106E0460D36011A
:1017800003FA06F6B14341F0706122B1460D36010D
:1017900003FA06F6314300F00046B6F1004F02D1DD
:1017A0001C4EF16101E01B4E7160F0BD30B50022AE
:1017B0008B071C0F0F2303FA04F2164B08338C100F
:1017C00053F824309343134C08348D1044F82530DB
:1017D00023468C1053F824308C07240F00FA04F4AD
:1017E00023430C4C08348D1044F8253030BD0A4991
:1017F000DC3108607047000000080140000C014027
:10180000001001400014014000180140001C01407C
:1018100000200140000001400000204210B50446B5
:10182000FE48844208D10121C014FFF7FFFD0021CA
:10183000E014FFF7FBFDC4E0B4F1804F08D10121B3
:101840000846FFF700FE00210120FFF7FCFDB8E08D
:10185000F348844208D101210220FFF7F4FD002162
:101860000220FFF7F0FDACE0EE48844208D10121F0
:101870000420FFF7E8FD00210420FFF7E4FDA0E0CD
:10188000E948844208D101210820FFF7DCFD00214E
:101890000820FFF7D8FD94E0E448844208D10121F4
:1018A0001020FFF7D0FD00211020FFF7CCFD88E0CD
:1018B000DF48844208D101212020FFF7C4FD002128
:1018C0002020FFF7C0FD7CE0DA48844208D10121E6
:1018D0004014FFF7ABFD00216014FFF7A7FD70E097
:1018E000D548844209D10121C804FFF79FFD00219A
:1018F0004FF40020FFF79AFD63E0D048844209D1FD
:1019000001210805FFF792FD00214FF48010FFF739
:101910008DFD56E0CA48844209D101214805FFF7F0
:1019200085FD00214FF40010FFF780FD49E0C54818
:10193000844208D101214020FFF785FD002140208D
:10194000FFF781FD3DE0C048844208D1012180209D
:10195000FFF779FD00218020FFF775FD31E0BB48DE
:10196000844208D101218015FFF76DFD0021A015EB
:10197000FFF769FD25E0B648844209D1012108043A
:10198000FFF754FD00214FF48030FFF74FFD18E0C2
:10199000B048844209D101214804FFF747FD0021E6
:1019A0004FF40030FFF742FD0BE0AB48844208D112
:1019B00001218804FFF73AFD00214FF48020FFF752
:1019C00035FD10BD00220288944B98420ED0994BF1
:1019D00098420BD0B0F1804F08D0914B984205D07F
:1019E000904B984202D0904B984204D14FF68F739F
:1019F0001A404B881A438D4B984207D08C4B984223
:101A000004D04FF6FF431A40CB881A4302808B88DC
:101A100083850B880385814B98420BD0854B984278
:101A200008D08B4B984205D08A4B984202D08A4B03
:101A3000984201D10B7A038601238382704770B5E7
:101A4000002400220023058C4FF6FE7635400584E5
:101A5000028C8388048B4FF68F752C40B51E2C406A
:101A60000D882C43751E2A400D892A434D882A4330
:101A70006A4DA8420BD06F4DA84208D0744DA842C1
:101A800005D0744DA84202D0734DA84213D14FF631
:101A9000F7752A404D892A434FF6FB752A408D88F9
:101AA0002A434FF6FF652B404FF6FF552B408D899B
:101AB0002B43CD892B4383800483CD888586028484
:101AC00070BD70B5002400220023058C4FF6EF7620
:101AD00035400584028C8388048B48F6FF752C40C2
:101AE0004FF6FF452C400D884FF6FF7606EA052598
:101AF0002C434FF6DF752A400D8906EA05152A4367
:101B00004D8806EA05152A43444DA84202D0494DA6
:101B1000A8421DD14FF67F752A404D894FF6FF76BA
:101B200006EA05152A434FF6BF752A408D8806EA56
:101B300005152A434FF6FF352B404FF2FF752B401A
:101B40008D8906EA85052B43CD8906EA85052B4359
:101B500083800483CD880587028470BD70B500241E
:101B600000220023058C4FF6FF6635400584028C69
:101B70008388848B4FF68F752C404FF6FC752C4074
:101B80000D882C434FF6FF552A400D894FF6FF76FE
:101B900006EA05252A434D8806EA05252A431F4DF6
:101BA000A84202D0234DA8421DD14FF2FF752A4012
:101BB0004D894FF6FF7606EA05252A434FF6FF3595
:101BC0002A408D8806EA05252A434EF6FF752B40EC
:101BD0004DF6FF752B408D8906EA05152B43CD89FF
:101BE00006EA05152B4383808483CD88858702848C
:101BF00070BD70B5002200230024058C4EF6FF76E0
:101C000035400584038C8488828B48F6FF752A4012
:101C10004FF6FF452A400D8820E00000002C0140CF
:101C20000004004000080040000C0040001000408C
:101C30000014004000340140004C014000500140BD
:101C40000054014000180040001C004000200040EB
:101C50000040014000440140004801404FF6FF763B
:101C600006EA05252A434DF6FF752B400D8906EA45
:101C700005352B434D8806EA05352B43FA4DA8421E
:101C800002D0FA4DA84208D14BF6FF752C408D8941
:101C90004FF6FF7606EA85152C4384808283CD8833
:101CA000A0F84050038470BD828B4FF2FF331A407E
:101CB0008283828B4FF6FF7303EA01231A438283E8
:101CC0007047F0B50C461546002200210026078C0F
:101CD0004EF6FF7C07EA0C070784828B018C4FF6D7
:101CE000FF7707EA043640F6FF473A404FF6FF77A2
:101CF00007EA05273A434FF6FF7707EA03373A43E7
:101D0000D94FB8420ED0D94FB8420BD0B0F1804F66
:101D100008D0D74FB84205D0D64FB84202D0D64FE0
:101D2000B84206D14DF6FF77394046F48057394323
:101D300005E047F6FF57394044F480573943828322
:101D40000184F0BD828B4FF6F3731A408283828B3D
:101D50000A4382837047F0B50C46154600220021E5
:101D60000026078C4FF6FF6C07EA0C070784828B6E
:101D7000018C4FF6FF7707EA04264FF60C773A40BE
:101D80004FF6FF7707EA03172F433A43B64FB8429F
:101D90000ED0B64FB8420BD0B0F1804F08D0B44F40
:101DA000B84205D0B34FB84202D0B34FB84206D1C3
:101DB0004FF6FF57394046F48077394305E04FF23C
:101DC000FF57394044F48077394382830184F0BD62
:101DD000028B4FF2FF331A400283028B4FF6FF73E0
:101DE00003EA01231A4302837047F0B50C461546F7
:101DF000002200210026078C4FF6EF7C07EA0C0733
:101E00000784028B018C4FF6FF7707EA041640F631
:101E1000FF473A404FF6FF7707EA03373A434FF65A
:101E2000FF7707EA05273A438F4FB8420ED08F4F0E
:101E3000B8420BD0B0F1804F08D08D4FB84205D0DA
:101E40008C4FB84202D08C4FB84206D14FF6DF77A4
:101E5000394046F01007394305E04FF65F773940C7
:101E600044F01007394302830184F0BD028B4FF622
:101E7000F3731A400283028B0A4302837047F0B562
:101E80000C46154600220021068C4FF6FE773E4098
:101E90000684028B018C4FF60C7632407E1C06EADB
:101EA00003162E433243704EB0420ED06F4EB042F6
:101EB0000BD0B0F1804F08D06D4EB04205D06D4EC2
:101EC000B04202D06C4EB04206D14FF6FD763140A2
:101ED00044F00106314305E04FF6F576314044F019
:101EE0000106314302830184F0BD70B505460C46FE
:101EF0005D4885420ED05D4885420BD0B5F1804FDC
:101F000008D05B48854205D05A48854202D05A48DD
:101F1000854200D100E000BF208850B92389A28803
:101F200061882846FFF7ABFFE1882846FFF79EFF50
:101F300025E0208804280AD12389A28861882846C0
:101F4000FFF753FFE1882846FFF742FF17E020889C
:101F500008280AD12389A28861882846FFF7FBFE5A
:101F6000E1882846FFF7EEFE09E02389A288618810
:101F70002846FFF7A6FEE1882846FFF795FE70BDCC
:101F80002DE9F04105460C4600260127608808B976
:101F9000022600E00026A088012801D1022700E0E7
:101FA00001272088A0B92389A28861882846FFF7E5
:101FB00066FFE1882846FFF759FF23893A463146F4
:101FC0002846FFF712FFE1882846FFF701FF13E0DC
:101FD0002389A28861882846FFF707FFE188284601
:101FE000FFF7F6FE23893A4631462846FFF747FFBA
:101FF000E1882846FFF73AFFBDE8F0810A884B8860
:102000001A438B881A43CB881A430B891A434B898E
:102010001A438B891A43A0F8442070474FF6FF718A
:10202000818000210180C1804180017270470021C0
:10203000018041808180C180018141818181C18194
:102040007047002101804180012181800021C180F1
:10205000018170470021018041808180C180018120
:102060004181818170470000002C01400034014013
:102070000004004000080040000C004021B102882C
:1020800042F00102028004E002884FF6FE731A401B
:102090000280704731B1B0F8442042F40042A0F809
:1020A000442005E0B0F84420C2F30E02A0F844201A
:1020B00070471AB183890B43838102E083898B4384
:1020C000838170478182704741EA0203A0F848305B
:1020D00070471AB183890B43838102E083898B4364
:1020E0008381704701894FF6F87211400181704772
:1020F0000A46002101894FF68F731940114301816F
:10210000704730B504460D4629462046FFF7F0FFDC
:10211000208940F00700208130BD2DE9F0410446C0
:102120000D4616461F46602D06D13B46012231461C
:102130002046FFF75AFE05E03B4601223146204685
:10214000FFF79DFE29462046FFF7D2FF208940F089
:1021500007002081BDE8F08130B50C4600210189DF
:10216000C9B24FF6FF7505EA0325154325432943F8
:10217000018130BD2DE9F04105460E4617469846CF
:10218000002443463A4631462846FFF7E5FF2C89AE
:102190004FF6F870044044F007044FF68F70044087
:1021A00044F070042C81BDE8F081F0B504460D4682
:1021B00016461F463B46324629462046FFF7CCFFCF
:1021C000208940F480402081F0BD018582827047E3
:1021D0000A46002101884FF68F7319401143018090
:1021E0007047F0B50C4615461E460021002200231C
:1021F0000189028B038C4FF6F877394021434FF663
:10220000FC473A4040F201173A434FF6DD773B4036
:102210004FF6FF7707EA06172F433B4301810283FE
:102220000384F0BD0A460021018B4FF68F731940DD
:102230001143018370470A460021018B48F6FF7362
:1022400019404FF6FF7303EA0223194301837047D5
:102250000A460021818B4FF68F7319401143818309
:1022600070470A460021818B48F6FF7319404FF6EC
:10227000FF7303EA022319438183704721B1028867
:1022800042F08002028004E002884FF67F731A4019
:102290000280704721B1828842F00402828004E00B
:1022A00082884FF6FB731A408280704721B1828882
:1022B00042F00802828004E082884FF6F7731A40E9
:1022C0008280704721B1828842F00102828004E05E
:1022D00082884FF6FE731A40828070470A460021BA
:1022E000018B4FF6F77319401143018370470A467B
:1022F0000021018B4FF2FF7319404FF6FF7303EA81
:1023000002231943018370470A460021818B4FF64F
:10231000F77319401143818370470A460021818B6E
:102320004FF2FF7319404FF6FF7303EA022319437C
:10233000818370470A460021018B4FF6FB731940D9
:102340001143018370470A460021018B4FF6FF338A
:1023500019404FF6FF7303EA0223194301837047C4
:102360000A460021818B4FF6FB731940114381838C
:1023700070470A460021818B4FF6FF3319404FF614
:10238000FF7303EA02231943818370470A46002141
:10239000018B4FF67F7319401143018370470A4642
:1023A0000021018BC1F30E014FF6FF7303EA0223F4
:1023B0001943018370470A460021818B4FF67F73D2
:1023C00019401143818370470A460021818BC1F374
:1023D0000E014FF6FF7303EA02231943818370470E
:1023E0000A460021018C4FF6FD7319401143018408
:1023F00070470A460021018C4FF6F77319401143CC
:10240000018470470A460021018C4FF6DF731940A2
:102410004FF6FF7303EA02131943018470470A461B
:102420000021018C4FF67F7319404FF6FF7303EACA
:1024300002131943018470470A460021018C4FF6AC
:10244000FF5319404FF6FF7303EA02231943018437
:1024500070470A460021018C4FF2FF7319404FF676
:10246000FF7303EA02231943018470470A460021DF
:10247000018C4DF6FF7319404FF6FF7303EA0233E8
:1024800019430184704730B5002301248C40A3B266
:10249000048C9C430484048C02FA01F5ADB22C43F5
:1024A000048430BD30B5002304248C40A3B2048CD6
:1024B0009C430484048C02FA01F5ADB22C430484DD
:1024C00030BD70B5034600200024184618300125A1
:1024D0008D40ACB21D8CA5431D8409B1082909D1DA
:1024E00000EB6100056825F070050560056815437F
:1024F00005600EE00D1FC5F34E052844056825F460
:10250000E045056005684FF6FF7606EA022635438A
:10251000056070BD21B1028842F00202028004E031
:1025200002884FF6FD731A400280704721B102887D
:1025300042F00402028004E002884FF6FB731A4066
:102540000280704721B1828842F08002828004E0DC
:1025500082884FF67F731A408280704702884FF658
:10256000F7731A40028002880A430280704782880B
:102570004FF68F731A40828082880A4382807047A8
:1025800002894FF6F8731A40028102890A430281D8
:10259000704702894FF67F731A40028102890A430D
:1025A00002817047818470478185704781867047BA
:1025B0000187704781877047A0F8401070470288F4
:1025C0004FF6FF431A40028002880A430280704798
:1025D0000146888E70470146088F70470146888FF4
:1025E00070470146B1F8400070470146888C70473B
:1025F0000146088D704702460020138A0B400BB13C
:10260000012000E000207047CA430282704730B5C5
:102610000246002000230024158A05EA010395895B
:1026200005EA010413B10CB1012000E0002030BD27
:10263000CA4302827047000031490143314A1160A8
:10264000704770B5002100230F22C47804B32D4CCD
:10265000246804F4E064C4F5E064210AC1F10403D1
:10266000CA40447804FA03F18478144021430901F4
:10267000254C0678A155047804F01F050124AC40D0
:1026800005786D11AD0005F1E025C5F8004109E0C0
:10269000047804F01F050124AC401C4D0678761127
:1026A00045F8264070BD1A4A0A400243154B1B1FCD
:1026B0001A60704739B1134A121D12680243114B58
:1026C0001B1D1A6006E00F4A121D126882430D4B53
:1026D0001B1D1A607047042808D14FF0E0210969DA
:1026E00041F004014FF0E022116107E04FF0E021DA
:1026F000096921F004014FF0E022116170470000E8
:102700000000FA050CED00E000E400E080E100E0EC
:1027100080FFFF1F0CB50020019000906C480068FE
:1027200040F480306A49086000BF6948006800F4DE
:10273000003000900198401C0190009818B9019851
:10274000B0F5A06FF1D16248006800F4003010B11C
:102750000120009001E0002000900098012843D162
:102760005C48006840F010005A490860084600685C
:1027700020F0030008600846006840F0020008608E
:1027800053484068524948600846406848600846D7
:10279000406840F4806048600846406820F47C103F
:1027A00048600846406840F4E81048600846006801
:1027B00040F08070086000BF4548006800F000707D
:1027C0000028F9D04248406820F0030040494860A2
:1027D0000846406840F00200486000BF3C4840683E
:1027E00000F00C000828F9D10CBD10B5FFF792FFDE
:1027F00010BD10B53648006840F00100344908604B
:102800000846406834490840314948600846006835
:10281000324908402E4908600846006820F48020AC
:1028200008600846406820F4FE0048604FF41F002E
:102830008860FFF7DAFF4FF000602949086010BD9B
:1028400010B5002100200022214B5B6803F00C0131
:1028500021B1042906D0082928D107E0214B224CB8
:10286000236027E01F4B204C236023E0184B5B685C
:1028700003F47010164B5B6803F48032022303EB01
:10288000904022B9194B4343174C23600DE0104B85
:102890005B6803F4003323B1144B4343124C2360B1
:1028A00003E0104B4343104C236003E00D4B0E4CF0
:1028B000236000BF00BF064B5B68C3F303130C4CDF
:1028C000E15C094B1B68CB40074C236010BD000046
:1028D00000100240002002400000FFF8FFFFF6FE5B
:1028E00008ED00E000127A005C00002000093D00C5
:1028F000600000200948804709480047FEE7FEE7DE
:10290000FEE7FEE7FEE7FEE7FEE7FEE7FEE7FEE79F
:1029100004480549054A064B70470000F3270008A4
:1029200031010008C8010020C8070020C8030020AA
:10293000C803002010B5203AC0F00B80B1E8185051
:10294000203AA0E81850B1E81850A0E81850BFF499
:10295000F5AF5FEA027C24BFB1E81850A0E8185038
:1029600044BF18C918C0BDE810405FEA827C24BF8C
:1029700051F8043B40F8043B08BF7047D20728BF1A
:1029800031F8023B48BF11F8012B28BF20F8023B69
:1029900048BF00F8012B704770477047704710B56B
:1029A00000F008F8006810BD10B5044600F002F809
:1029B000046010BD0048704768010020004870475F
:1029C000680100207546FFF7F9FFAE46050069462D
:1029D000534620F00700854618B020B5FFF798FF52
:1029E000BDE820404FF000064FF000074FF0000810
:1029F0004FF0000B21F00701AC46ACE8C009ACE891
:102A0000C009ACE8C009ACE8C0098D46704710B5F4
:102A10000446AFF300802046BDE81040FDF7CFBB71
:102A200001491820ABBEFEE72600020070474900AE
:102A300050EAC12018BF04204A0D18BF40F0010021
:102A400040F2FF72B2EB515F08BF40F00200012874
:102A500008BF0520704700002DE9F74F144694B0D9
:102A60000021C4E902111599079121F00045C949D7
:102A70008D4206DC1599C4E9000117B00020BDE8BD
:102A8000F08FC549DFF814A3A9423CDD0799C44E75
:102A90000029C44FC44A1599534619DD01F05EFA66
:102AA000554506D0C14AC24B01F058FAC4E90001AD
:102AB0000AE04FF0D352BE4B01F050FA32463B468B
:102AC00001F04CFAC4E9000117B00120BDE8F08F15
:102AD00000F0AAFD554506D0B44AB54B00F0A4FD60
:102AE000C4E900010AE04FF0D352B14B00F09CFD65
:102AF00032463B4600F098FDC4E9000117B04FF0A4
:102B0000FF30BDE8F08FAB49A942159978DB21F081
:102B1000004183468846A84AA84B01F02FF80022BE
:102B2000A74B00F081FD00F093FF099000F0BFFF7C
:102B300006460F469C4A534601F020F843465A4643
:102B400001F01AF980468A46984A994B3046394630
:102B500001F014F82A0D01250B924246534601F06C
:102B60000BF9032DC4E9000139D00B98C1F30A51C8
:102B7000401A05EB45111139814230DA9148C346BC
:102B8000784400EB0510CDF80CA00C90D0E90023A0
:102B90003046394600F0F2FF02460B46049106909B
:102BA0005846039901F0DAF980468A4602460B46F8
:102BB0005846039901F0D2F9049B069A01F0CEF928
:102BC00083460C9803913946D0E90223304600F041
:102BD000D5FF5A46039B01F0C1F96D1CBDE707986C
:102BE0000028A2BF099817B0BDE8F08F616881F096
:102BF00000416160099817B04042BDE8F08FFFE7DF
:102C000084461598C1F31301C0F30A50A0F2F530C1
:102C10004FEA601800F01F06C6F120001390002054
:102C20000690079041F4801E05206D4676B1664AF5
:102C300008EB00017A4452F8213002EB8101B340E5
:102C40004A68139922FA01F1194305E05F4908EB3C
:102C50000002794451F82210A1FB0E27A1FB0C13AE
:102C60001A449A4234BF0123002303EB070A05EB01
:102C70008003D3E901B70F448F4234BF0121002103
:102C800093448B4411B1934502D903E0934501D29B
:102C9000012100E00021C3E901B7514445F82010AB
:102CA000011EA0F10100C1DC0298059F00F1005057
:102CB000800F12900298DDE90356800000F0F7FEC5
:102CC000834628460D9100F009FF6FF01D0201F0C8
:102CD000F6FDCDE90E01304600F000FF6FF03D0239
:102CE00001F0EDFD80468A46384600F0F7FE6FF0B1
:102CF0005D0201F0E4FD074642465346119100F0A3
:102D000093FCDDE90E2300F08FFC5A460D9B00F08A
:102D10008BFC00250E465A4628460D9B01F01EF9F5
:102D2000DDE90E2301F01AF94246534601F016F987
:102D30003A46119B01F020F8DFF898A0244A534648
:102D400000F01CFF07468846234A244B314628469C
:102D500000F014FF3A46434600F066FC07468846FA
:102D60004FF0A84253463146284600F007FF3A4646
:102D7000434600F059FC159A12F0004F04D0129A05
:102D800081F0004152421292C4E90001129817B03A
:102D9000BDE8F08FFB21E93F7CD90240FB21F93FE0
:102DA0007370032E8A19A33B000040543163621AEA
:102DB00061B4D03DFB21394183C8C96D305FE43F28
:102DC0000000E03FCC1E0000481E00002A1E00004C
:102DD000182D4454FB21F93D3326A611460B113C16
:102DE0002DE9FF4D21F0004807460C46B8F1795F08
:102DF00008DA00F02DFE002801BF0020324904B09F
:102E0000BDE8F08D3A4623461046194600F0B6FE5E
:102E1000054602462D480E460B460621784400F032
:102E20005DF82A46334600F0A9FEDDE9022382461A
:102E30008B463846214600F0A1FE04460F46524616
:102E40005B462846314600F099FE22463B4601F09B
:102E500085F807468A464FF0FF322846314601F092
:102E60002EFD1B4A90450ADA3A46534601F076F8A1
:102E700004B00022BDE8F04D134B00F07DBF154AB1
:102E80004245A8BFA8F500154FF00004B8BF124D89
:102E900022462B4601F062F80646884622462B461B
:102EA0000020094901F05AF804460D463A465346B7
:102EB0003046414601F052F804B022462B46BDE8A8
:102EC000F04D00F059BF00000000F03FF81B00007B
:102ED0003333D33F0000E93F0000D23F2DE9F041FA
:102EE0004F1E00EBC7010446D1E9000115461E46FE
:102EF00037F006020DD02A46334600F03FFE7F1E13
:102F000004EBC703D3E9002300F08EFB37F0060281
:102F1000F1D1022F25D0042F13D0062F18BFBDE802
:102F2000F0812A46334600F029FED4E90A2300F056
:102F30007BFB2A46334600F021FED4E9082300F04B
:102F400073FB2A46334600F019FED4E9062300F04D
:102F50006BFB2A46334600F011FED4E9042300F04F
:102F600063FB2A46334600F009FED4E9022300F051
:102F70005BFB2A46334600F001FED4E90023BDE89E
:102F8000F04100F051BB00002DE9FF4D054621F056
:102F9000004084B00C46B0F1795F0BDA2846FFF7A9
:102FA00046FD042808BF00F071F8284608B0214605
:102FB000BDE8F08D2A460B46104600F0DFFD0646C0
:102FC0000F462A46234600F0D9FD804626488A4609
:102FD00032463B4605217844FFF780FF8346109830
:102FE000029160B3214A224B4046514600F0C6FD93
:102FF000CDE900015A4640465146029B00F0BEFD15
:1030000082468846DDE906014FF0FF3201F057FCA9
:103010005246434600F0A2FF32463B4600F0AEFD6A
:10302000DDE9062300F09AFFDDE9002300F096FFBA
:1030300008B02A462346BDE8F04D00F09DBE0B4681
:103040005A463046394600F099FD084A084B00F0D0
:10305000EBFA4246534600F091FD08B02A4623465B
:10306000BDE8F04D00F0E0BA3E1B00004955555553
:103070005555C5BF012201F022BC00F0D5BA00228F
:1030800013461046114600F08BBB0000024A002098
:10309000110701F014BC000001FDFFFF2DE9F84FFE
:1030A00004460D4621F0004000917349814211DC35
:1030B0007249884201DC06D12CB120462946BDE880
:1030C000F84FFFF7D7BF6E48002DCCBF6D496E4952
:1030D000BDE8F88F6D49814211DD6D498142D8BF4D
:1030E0004FF0FF366DDD20462946FFF7A0FC04288F
:1030F00008BFFFF7CBFF20462946BDE8F88F65499A
:10310000654F25F00045814233DD6449814219DD78
:10311000002632464FF080432046294600F084FACC
:1031200080468A4601222046294601F0C8FB00223B
:103130003B4600F013FF4246534600F031FB044685
:103140000D463EE001260022BA463B46204629466F
:1031500000F06AFA80460F46002253462046294670
:1031600000F0FCFE42463B4600F01AFB04460D46CA
:1031700027E04B4981421BDDDFF828A1022600220F
:1031800053462046294600F0F9FC00223B4600F059
:103190004BFA80460F46002253462046294600F04F
:1031A000DDFE42463B4600F0FBFA04460D4608E0D1
:1031B000032622462B4600203B4900F0F1FA044644
:1031C0000D4622462B461046194600F0D7FC8B468A
:1031D000824602460B4600F0D1FC074602463348C1
:1031E00088460B4606217844FFF778FE52465B4638
:1031F00000F0C4FC82462E488B463A4643460521E1
:103200007844FFF76BFE3A46434600F0B7FC0246AF
:103210000B46002E504659460CDA00F005FA2246BD
:103220002B4600F0ABFC01B022462B46BDE8F04F28
:1032300000F0A2BD00F0F8F922462B4600F09EFCFB
:103240001C4A7A4402EBC603D3E9002300F086FE51
:1032500022462B4600F082FE174A7A4402EBC60350
:10326000D3E9002300F088FD009A002AB8BF81F05E
:103270000041BDE8F88F0000000010440000F07F1E
:10328000182D4454FB21F93FFB21F9BF0000DC3F1E
:103290000000203E0000F33F0000F03F0000E63F4A
:1032A000008003400000F83F0000F0BFFE17000060
:1032B000BC1700005A170000221700002DE9F04D3E
:1032C0009446CCF1000423F000464CEA0404524F2B
:1032D00046EAD4749A46884621F00042BC4206D899
:1032E000454240EA050442EAD474BC4204D9BDE830
:1032F000F04D6246FFF7C1BEAAF14055A5F17F65CA
:1033000055EA0C040BD0022404EAAA74434DDFF8FA
:1033100010E144EAD87452EA000B04D00CE0BDE896
:10332000F04DFFF7BBBE002C14BF012CBDE8F08DA3
:10333000022C30D0032C32D056EA0C0B0AD0BE42FD
:1033400020D1BA4209D126F0804622F0804233468D
:10335000114617E000291ADB25E0DFF8C8B0FB446E
:10336000002C04BFDBE90001BDE8F08D012C02BF99
:10337000DBE9000181F00041BDE8F08D022C0AD0AC
:10338000032C0CD0BA4212D1B8F1000F0BDA23484B
:103390002549BDE8F08D28462449BDE8F08D284632
:1033A0007146BDE8F08D1D482149BDE8F08D921BA6
:1033B00012153C2AC4BF19481D490EDCBAF1000F92
:1033C000BEBF12F13C0F0020014606DB624600F052
:1033D000E7F921F00041FFF761FE002C08BFBDE8CE
:1033E000F08D012C04BF81F00041BDE8F08D114A41
:1033F000114B022C07D000F0B1FD2A46BDE8F04D7C
:103400000A4B00F0ABBD00F0A9FD2A46BDE8F04D27
:10341000064B00F0B1BC00000000F07F182D4454B2
:10342000FB2109C0E6160000FB21F9BFFB21094082
:10343000FB21F93F075C143326A6A13C00B5244BC1
:1034400021F0004287B09A42DCBF0022134629DDFA
:10345000204B9A4208D140B94FF00100FFF7A4FA7F
:10346000FFF70DFE07B000BD03DBFFF703FE07B05B
:1034700000BD02AAFFF7F0FA10F0030104BF0DF13E
:10348000080C9CE80F000DD0012001290ED0022964
:1034900014D00DF1080C00909CE80F00FFF774FDAC
:1034A00007B000BDFFF79CFC07B000BD0DF1080C94
:1034B00000909CE80F00FFF767FD05E00DF1080C98
:1034C0009CE80F00FFF78CFC07B081F0004100BDC5
:1034D000FB21E93F0000F07F00B5254B21F00042C1
:1034E00087B09A4203DC0022134600922BE0214B66
:1034F0009A4208D140B94FF00100FFF755FAFFF7A3
:10350000BEFD07B000BD03DBFFF7B4FD07B000BD93
:1035100002AAFFF7A1FA10F003014FF001000DD04D
:10352000012914D002291AD00DF1080C9CE80F00D3
:10353000FFF756FC07B081F0004100BD0DF1080C0B
:1035400000909CE80F00FFF71FFD07B000BD0DF1D4
:10355000080C9CE80F00FFF743FC07B000BD0DF11D
:10356000080C00909CE80F00FFF70EFDE2E700005A
:10357000FB21E93F0000F07F2DE9F04106460F46B0
:1035800000F006FC041E0D4618BF0120284320F061
:103590000040C0F17F6000F1E040C00F0ED0301C51
:1035A00018BF0120384320F00040C0F17F6000F1D7
:1035B000E040C00F04BF0120FFF7F6F9204629467E
:1035C000BDE8F08121F00042A2F16052B2F5801F07
:1035D00001F0004328BFD2F17F6C0BD95FEA001CD9
:1035E00043EAC20242EB507018BF704728BF20F078
:1035F00001007047B2F5801FBCBF184670474FEA04
:10360000410C1CF5001F02D2084601F070B870B5DD
:1036100000F05EFB00000089FFF7F6BF4FF00040AE
:10362000A0F580007047000010B591EA030F48BF75
:1036300083F0004300F19A84841A71EB030C05D2E5
:10364000121943EB0C03001B61EB0C01DFF824E1C2
:103650004FEA1154A4EB135C1EEA430F18BF9EEA15
:10366000445F73D023EA0E03DCF1200E21EA0451FB
:1036700043F4801332D322FA0CFE10EB0E0023FA2F
:103680000CFE41EB0E01CCF1200E03FA0EFE10EB06
:103690000E0051F10001B1F5801FCCF1200E32D2A5
:1036A00001EB045112FA0EF2BDE8104058BF70470A
:1036B000401C38BF5FEA420218BF7047002814BFA1
:1036C00020F0010041F100014FEA410313F5001F12
:1036D00038BF7047A1F1C04100F048BB012A43EB5D
:1036E0000302ACF1200CDCF11F0E32BF4FF0000ED4
:1036F00023FA0CF310EB030041EB0451B4EB115F20
:10370000D0D0A1EB045101F5801149085FEA3000E7
:1037100001EB04510ED350F1000038BF12FA0EFE37
:1037200008D1BDE81040C9E7401C38BF5FEA42023B
:10373000CAD1C3E7BDE810404FEA410313F5001FAB
:1037400038BF7047A1F1C04100F010BB9EEA445F52
:1037500008D011EA5E0FBDE8104004BF01F000413F
:1037600000207047BDE8104070B500F0B1FA00BF0E
:1037700064FBBE3E0000E0FF02494FF0000001F094
:103780006CB800BF0000F87F491058BFC1F140413C
:103790005B1058BFC3F140438B42EFF3008070478A
:1037A0002DE9C04130B4DFF8A0C23CEA111418BFC3
:1037B0003CEA131400F0EC8081EA03051CEA1114C2
:1037C00044EAD57418BF1CEA131500F0C780A4EBB7
:1037D00005044FF0004545EAC12145EAC32341EA0B
:1037E000505143EA525304F17F74994204F5003476
:1037F0004FEAC0204FEAC22208BF904200F09C80EE
:103800004FEA13650FF24016765D4FEA134506FB4B
:1038100005F7C7F1807706FB07F74FEAD737A7FB15
:1038200003687642C8F58038A7FB06CE38BFA8F1FA
:10383000010807FB08E64FF0000EA6FB028CE6FB32
:1038400003CEDCF1000CCEF1004E38BFAEF1010E1C
:10385000A6FB0C584FF000074FF00005E6FB0E8763
:10386000A1FB08C6A0FB07CE16EB0E0645F100052E
:10387000E1FB076515F1E04E7EBFA4F580345FEAF9
:1038800046066D4116F1800745F100054FEA1727FE
:103890004FEA066647EA0567A6F1DE46B6F1805FA5
:1038A0004FEA15251FD9384624F0010C05EBC471E9
:1038B000BCF1FE6F01EB0C1102D8F0BCBDE8008139
:1038C00024425CBF01F5801E9EEAC47F02D4F0BC96
:1038D000BDE80081244238D4F0BCA1F1C041BDE86C
:1038E000004100F043BA4FEAD22242EA43524FEA83
:1038F000D323A7FB02864FEAD02040EA415007FBC2
:1039000003661EEA0E0F4FEAD12105FB026658BF7F
:10391000A6EB0056B6EB00564FEA520E4EEAC37EB7
:1039200018EB0E0E56EB530EBDD518EB02085E4198
:103930007F1C55F10005B6E74FF480154FF00007E6
:103940004FF000064FF00008ADE7F0BC4FF000006C
:1039500001F1C04101F00041BDE8008111EA0C1FF6
:103960000CEA131500D00CE013EA0C1F00F02580C0
:103970004FF00000F0BC81EA030101F00041BDE816
:103980000081F0BCBDE8004181EA030100F0EEB91E
:10399000F0BCBDE8004170B500F09AF9097EFC3E2C
:1039A00000F007B881EA03014FF0000001F0004188
:1039B000704781EA030100F0D9B9F0BCBDE80041CD
:1039C0004FF0000021497047FFFDFBF9F7F5F4F2D5
:1039D000F0EEEDEBE9E8E6E4E3E1E0DEDDDBDAD8AA
:1039E000D7D5D4D3D1D0CFCDCCCBCAC8C7C6C5C408
:1039F000C2C1C0BFBEBDBCBBBAB9B8B7B6B5B4B31F
:103A0000B2B1B0AFAEADACABAAA9A8A8A7A6A5A409
:103A1000A3A3A2A1A09F9F9E9D9C9C9B9A999998CD
:103A20009797969595949393929191908F8F8E8E70
:103A30008D8C8C8B8B8A89898888878786858584FD
:103A400084838382828181800000FF070000F87FE9
:103A50004FEA41034FEA5353A3F58063D3F11E03AA
:103A6000C8BFD3F1210C0CDD4FF0004242EAC12265
:103A700042EA505232FA03FC8CEAE17CACEBE17092
:103A80007047102BC4BF0020704703F5787CBCF151
:103A9000FF3F04D06FF0004282EA2100704770B50A
:103AA00000F016F94992248000207047F2E710F0E8
:103AB000004248BF4042B0FA80F310FA03F10AD046
:103AC000C3F11D0303F580634FEA415002EB03523B
:103AD00002EBD12170474FF000007047B0FA80F33D
:103AE00010FA03F10AD0C3F11D0303F580634FEA16
:103AF00041504FEA035202EBD12170474FF00000D2
:103B00007047000051EA030C17D41CF5801F58BF02
:103B1000BCF5801F00F10680994218BF704708BFAE
:103B20009042704707D711F5801F58BF13F5801FCB
:103B300019D499427047894270471CF5801F08D5F7
:103B4000BCF5801FF7D58B4218BF704708BF824273
:103B500070474FF4001C1CEB410F38BF1CEB430FA8
:103B600001D28B42704770B500F0B2F89224490040
:103B70004FF000514FF08053FFF706BEDFF848C109
:103B800070B51CEA111E1EBF1CEA13159EEA0C0F2D
:103B900095EA0C0F00F06F8081EA030423EA4C13CE
:103BA0004EEAD47E21EA4C1141F4801143F4801393
:103BB000AE44A1FB024CA0FB0365AEF17F7E36193B
:103BC00055EB0C05A1FB034C4CF10003A0FB021CC0
:103BD00016EB0C06654153F10003094218BF46F08D
:103BE000010613F4007F0BD14FEA03314FEA053091
:103BF000340341EA155140EA16506FF003020AE01F
:103C00004FEAC3214FEAC520F40241EA555140EA88
:103C100056506FF0020202EB2E4201EB025585EA8C
:103C2000CE710AD05FEA440C18BF24F0004450F172
:103C3000000041F1000120EAD47040F2FE7C6245B0
:103C400000D270BDA84214BF4FF080444FF04044F2
:103C5000002E08BF0024BEF1806FA8BFA1F1C041B3
:103C6000BDE8704080F282804FF0000001F1C04159
:103C700001F0004170479EEA0C0F0CEA131518BFC3
:103C800095EA0C0F06D04FF0000081EA030E0EF00B
:103C9000004170BD00F01CF88900013E00F007B83B
:103CA00000F009B84FEA430C5FEA5C5C08D081EA97
:103CB000030100F05BB84FEA410C5FEA5C5CF6D1AF
:103CC0004FF00000014970470000FF070000F87F37
:103CD0000EF1020E2EF0030E5EF8046B364205D490
:103CE000012A43EB030515F5001F12D8012841EB0B
:103CF000010C1CF5001F0CD80ED14FEAD17C15F534
:103D0000001F0CEB4C0C0CF1020C08BF4CEBD37CED
:103D100004E04FF0080C01E04FEAD37C0CEB4C05BB
:103D200026FA05F606F00706B6F1040C06D20EEBED
:103D3000860CBDE870404CF0010C6047DFE80CF0E9
:103D4000090B02024FF000414FF00000A1F50021E5
:103D500070BD19461046012851EB010418BFD4F577
:103D6000001484BF002001F0004170BD0808A0F5D8
:103D700000114FEA3101704791EA030F10B581F04D
:103D800000413FF559AC83F0004300F0EFB800006C
:103D90002DE9F04101F5801CBCF5001FC0F2C38085
:103DA0004FEA115C21EA0C510CF1FD0C41F4801139
:103DB0005FEA5C0C0CF5C07C01D3400049413DA496
:103DC000890241EA905187028E0E0A0CA45D04FB21
:103DD00004F602FB06F6C6F14046A4FB0662F60DA9
:103DE00046EA422606FB06F4A4FB01235242C3F135
:103DF000404338BF5B1EA6FB02420024E6FB0324BF
:103E0000D20B42EA4446A6FB0623A1FB02E2A3FB37
:103E100007E4A4184FF0000252F10002E3FB014254
:103E20006442C2F1404E38BFAEF1010EA6FB04233E
:103E30004FF00002E6FB0E32A2FB03464FF00004F7
:103E4000B61954F10004E2FB0264A1FB06E6A4FBF0
:103E500007E816EB08064FF0000858F10008E4FBED
:103E600001687642C8F1405838BFA8F10108A2FBAA
:103E700006E4A3FB08E52D194FF0000454F10004FB
:103E8000E2FB0854A1FB05E6A7FB04E818EB0608D3
:103E90004FF0000656F10006E1FB048618F12005FC
:103EA00056F10006A809A8F11B08B10908F03F085F
:103EB000B8F10A0F40EA86601CD901EB0C51BDE84D
:103EC000F08100BFFCF5EEE8E2DDD8D3CFCBC7C36D
:103ED000C0BDB9B6B4B1AEACA9A7A5A3A19F9D9B27
:103EE0009A9896959392908F8D8C8B8988878685EA
:103EF00084838281A0FB006800FB01F208EB42088A
:103F0000B8EB872807D5341858EB0104D5D5401CE9
:103F100051F10001D1E7341A78EB0104CDD4401EF1
:103F200071F10001C9E75FEA4C0C5FEA9C5C0DD1BE
:103F300005D34FF0000001F00041BDE8F081BDE87D
:103F4000F04170B5FFF7C4FE6DDBFFBEBDE8F04188
:103F50004FF00000004970470000F87F10B591EA6B
:103F6000030F48BF83F000433FF566AB841A71EB43
:103F7000030C07D212198CF0004C43EB0C03001B0E
:103F800061EB0C01DFF8A4E14FEA1154A4EB135CE0
:103F90001EEA430F18BF9EEA445F00F0B08023EA98
:103FA0006E03524221EA0451C3EB6E0338BF5B1E1D
:103FB000DCF1200E25D322FA0CFE10EB0E0043FAA2
:103FC0000CFE41EB0E01CCF1200E03FA0EFE10EBBD
:103FD0000E0051F10001CCF1200E29D412FA0EF29C
:103FE00001EB0451BDE8104058BF7047401C1CBF96
:103FF000B2F1004F704700280CBF491C20F00100AF
:10400000704712EB020E43EB030218BF4FF0010E94
:104010004EEA4202ACF1200CDCF11E0E54D943FAF8
:104020000CFE10EB0E0051F1FF31CCF11E0ED5D578
:104030000EF1010E12FA0EFE404141EB010101EBBF
:10404000445C5FEA5C5C10D910EBDE7001EB04515C
:1040500038BFBEF1004FBDE8104018BF70470028C0
:104060000CBF491C20F00100704730D24FEAD42C1D
:1040700011F5001124F400641BD0B1FA81F20B3A5F
:10408000A41AA41ED2F12003914030FA03F319437D
:10409000904001EBCC71002C01EB0451BDE81040C5
:1040A000A8BF704701F1C0414FF0000001F000418E
:1040B0007047B0FA80F310FA03F100D110BDE41A92
:1040C000173C4805C90AE4E701EB045110BD49104B
:1040D00001EB0451BDE810404FEA300002E04FF020
:1040E000000170474A0008BF0042F8D0B2F5001F37
:1040F00028BF704701F000414FF0000070479EEA72
:10410000445F07D011EA5E0FBDE8104004BF0021F4
:1041100000207047BDE8104070B5FFF7D9FD00BF23
:1041200040DFF63E83F00041104670470000E0FF9C
:1041300043004FEAD30C4FEA3C0C43401FBF4007FB
:104140000CF1605113F0FE4F70471CF0006F03D16B
:1041500000200CF0004170470CF0004343EA50701F
:1041600010B540EACC0000F07CFA00BF00000092DD
:104170004FEA0001FFF7FABD4FF000414FF0000099
:10418000A1F500217047000090EA010F48BF81F0BF
:10419000004100F1F482421A3CBF801A89184FEAAC
:1041A000D0524FF07F4C1CEA410FA2EBD15318BF05
:1041B0009CEA026F00F03B804FF0004C4CEA00207C
:1041C0004CEA012121FA03FC10EB0C0C1ED202F187
:1041D000FF325FEA1C2040EBC25038BF70471CF032
:1041E0007F0F4FEA400C18BFBCF17F4F38BF7047BC
:1041F000C3F12003994008BF20F00100BCF17F4FBC
:1042000038BF7047A0F1C04000F071BA4FEA3C00DF
:10421000000A40EBC25028BF1CF0FF0F4FEA400CD1
:10422000E6D018BFBCF17F4F38BF7047EAE79CEA81
:10423000026F05D010EA5C0F08BF00F00040704725
:1042400010B500F00EFA00BF64FBBE3E401058BF30
:10425000C0F14040491058BFC1F140418142EFF3E5
:10426000008070474FF47F0C1CEAD0121EBF1CEA7E
:10427000D11392EA0C0F93EA0C0F00F0858090EABC
:10428000010F48BF42F4807240F4000C41F400007A
:104290002CF07F4120F07F4000B58142A2EB030269
:1042A0000FF2081CACEB504EC0F100009EF800E08D
:1042B0004FEA4E0E00FB0EFC38BF49004FEA2C1CA3
:1042C00002F5FA020CFB0EF34FEACE1E4FEA112C58
:1042D0004FEAC1210EEB635E42EB22420EFB0CFC67
:1042E0004FEA1C5300FB03114FEA112C4FEA013136
:1042F0000EFB0CFC4FEADC4C00FB0C11C14228BF4A
:1043000009184CEB03335DF804EB10EB410143EB70
:10431000C250B2F57C0F38BF704729D512F0F00FAC
:104320001CBF00F1C04000F0004070470081828354
:104330008485868788898B8C8D8E8F9192939596B4
:1043400097999A9C9D9FA0A2A3A5A7A8AAACAEB03E
:10435000B2B3B5B7B9BCBEC0C2C5C7C9CCCED1D443
:10436000D7D9DCDFE2E6E9ECF0F3F7FAFE00000073
:104370004FEA400C0CF1807CBCF17E4F28BF7047A7
:10438000B0F1C04000F0B3B990EA010F0CEAD113CC
:1043900048BF42F48072624538BF634507D213F4C8
:1043A0007F0F16D080EA010000F00040704710B582
:1043B00000F057F9097EFC3E00F005B880EA0100E4
:1043C00000F00040704780EA010000F0004000F07B
:1043D0008EB912F47F0F04BF0248704780EA0100D3
:1043E00000F085B90000C07F50EA010C00F1138095
:1043F0001CF5000F58BFBCF5000F01D48842704770
:1044000007D710F5000F58BF11F5000F15D48842DB
:104410007047894270471CF5000F04D5BCF5000FAA
:10442000F7D5814270474FF0807C1CEB400F38BFBE
:104430001CEB410F01D28142704710B500F011F919
:10444000922449004FF000504FF08051FFF7FEBE1C
:1044500041000B0ED3F19E0208D950F400034FEA3D
:10446000032323FA02F048BF4042704710B500F022
:10447000F8F800BF49922480002070476FF0004296
:1044800082EA200070470000C10DD1F19E0206DBD8
:104490004FEA002343F0004323FA02F07047004242
:1044A00007D54FEA4001B1F1FE4F02D24FF00000B4
:1044B000704710B500F0D5F849922480002070476D
:1044C0006FEA20007047000010F0004148BF4042F2
:1044D000B0FA80F310FA03F2C3F19D030BD051EA56
:1044E000C35101EB1220530638BF704700F10100A1
:1044F00008BF20F00100704750EA010C00F1138062
:104500001CF5000F58BFBCF5000F01D4884270475E
:1045100007D710F5000F58BF11F5000F15D48842CA
:104520007047894270471CF5000F04D5BCF5000F99
:10453000F7D5814270474FF0807C1CEB400F38BFAD
:104540001CEB410F01D28142704710B500F089F891
:10455000922449004FF000504FF08051FFF776BE93
:104560004FF47F0C1CEAD0121EBF1CEAD11392EA52
:104570000C0F93EA0C0F00F0478090EA010F48BF40
:1045800042F480724FF0004C4CEA00204CEA0121CA
:1045900002EB0302A0FB0113A2F50002002918BFE1
:1045A00043F001035B0028BF4FEA330342EB224292
:1045B0005FEA132C4CEBC2502EBFBCEB436FB2F53D
:1045C0007C0F70474FEA036CBCF1004F08BF20F02E
:1045D0000100B2F57C0F38BF70470BD582F0FF02A7
:1045E00012F5803FC8BF704700F1C040D8BF00F04F
:1045F0000040704700F5000C5FEA4C0C48BF704764
:10460000B0F1C04000F073B890EA010F0CEAD1138A
:1046100048BF42F48072624538BF634504D280EAE5
:10462000010000F00040704710B500F01AF800BF1C
:104630008900013E00F007B800F009B85FEA410CBC
:104640005FEA1C6C08D080EA010000F050B85FEA15
:10465000400C5FEA1C6CF6D14FF00040A0F58000E2
:1046600070470EF1020E2EF0030E5EF8044B24424A
:1046700004D44FEA4102B2F17F4F11D84FEA400310
:10468000B3F17F4F0CD80ED14FEAD07CB2F17F4FFF
:104690000CEB4C0C0CF1020C08BF4CEBD17C04E091
:1046A0004FF0080C01E04FEAD17C0CEB4C0324FAEC
:1046B00003F404F00704B4F1040C06D20EEB840CEE
:1046C000BDE810404CF0010C6047DFE80CF0070833
:1046D00002024FF00040A0F5800010BD08464200E5
:1046E00018BFD2F1807288BF00F0004010BDFF21DA
:1046F00041EAD050C005704751EA000C00F1138028
:104700001CF5000F58BFBCF5000F01D48142704763
:1047100007D711F5000F58BF10F5000F15D48142CF
:104720007047894270471CF5000F04D5BCF5000F97
:10473000F7D5884270474FF0807C1CEB410F38BFA3
:104740001CEB400F01D28842704780EA010081EAE9
:10475000000180EA0100FFF7F8BE80F0004090EA17
:10476000010F7FF518AD81F0004100F008B800009E
:1047700090EA010F48BF81F000413FF50CAD421AAD
:1047800004D882F00042A0EB020011444FEAD0525C
:104790004FF07F4C1CEA410FA2EBD15318BF9CEAAB
:1047A000026F4AD04FF0004C4CEA00204CEA012145
:1047B00021FA03FCB0EB0C0C0FD412F0FE0F36D034
:1047C0005FEA4C001DD5001240EBC25038BF704765
:1047D0001CF03F0F18BF70470BE0A2F101025FEA27
:1047E0001C2040EBC25038BF70471CF07F0F18BF31
:1047F0007047C3F12003994014BF401E20F0010010
:10480000704780084FEA122308BF7047B0FA80FC57
:10481000A2EB0C02CCF1280C60FA0CF093EA122FF8
:1048200004BF00EBC25070474FEAC3707047130AD1
:104830005FEADC1008BF7047F6E79CEA026F04D01D
:1048400010EA5C0F08BF0020704710B5FFF709FFA2
:1048500040DFF63E81F0004070470CF00F03092B5B
:1048600008BF082000F059800A2B0BD0082B18BF76
:10487000704708BF1CF0400F0AD04FF000004FF007
:10488000000170471CF0400F18BF4FF00040704708
:104890001CF0100F08D020F0704300F07F4242EA75
:1048A000D3014FEA4370704700F0604021F07F422F
:1048B00042EA000201F07F4040EA727070474FF018
:1048C000FF0C4CF4E06C1CEA11531CBF9CEA030C77
:1048D0009445C2BFDA4201EB02517047002B0DD064
:1048E000BCF1000F0FD0002A01F00041A4BF41F03D
:1048F000E04141F07F614FF00000704701F000415E
:104900004FF00000704750EA01334FF09B0C18BF86
:104910004CF0806C7EF430AF70471CF4801F11D0D7
:104920001CF4E02F03D06FEACC31490070474FF000
:104930004050EFF3008222F0704242EA000282F31C
:10494000008870474FF00000704700000000B4423C
:104950000000B4420000B4420000B4420000B4427F
:104960000000B4420000B4420000B4420000B4426F
:104970000000B4420000B442000070420000000099
:104980004FBB610567ACDD3F182D4454FB21E93F67
:104990009BF681D20B73EF3F182D4454FB21F93F56
:1049A000E2652F227F2B7A3C075C143326A6813CDC
:1049B000BDCBF07A8807703C075C143326A6913C87
:1049C000C4EB98999999C9BF711623FEC671BCBFF3
:1049D0006D9A74AFF2B0B3BF9AFDDE522DDEADBF5B
:1049E0002F6C6A2C44B4A2BF0D5555555555D53F73
:1049F000FF8300922449C23F6E204CC5CD45B73F8E
:104A0000513DD0A0660DB13FEB0D76244B7BA93F05
:104A100011DA22E33AAD903F4C5555555555A53F17
:104A20007751C1166CC156BF9015CB19A001FA3E43
:104A3000AD529C804F7E92BEC4B1B4BD9EEE213E6D
:104A4000D43888BEE9FAA8BD0000000000000000CC
:104A500000004054FB21F93F3163621A61B4D03D3C
:104A60000000601A61B4D03D7370032E8A19A33B15
:104A70000000002E8A19A33BC14920259A837B3967
:104A800000000000000000006E83F9A22915444ECA
:104A9000D15727FCC0DD34F5999562DB4190433C4A
:104AA000AB6351FE61C5BBDE3A6E24B7E0D24D4226
:104AB000EA2E49061C92D1091CEB1DFE3EA729B126
:104AC000F53582E88444BB2E26709CE9417E5FB4B4
:104AD00039D69139F43953838B5F849C3B28F9BDD7
:104AE000FF97F81F0F9805DE8B112FEF1F6D0A5AE5
:104AF000CF7E366DB709CB27663F464F2DEA5F9EC6
:104B0000C7BA27757BF1E5EBF739073DEA92528A80
:104B1000B15FFB6B085D8D1FA6F810111111813F6D
:104B2000D561C119A0012ABF7DFEB157E31DC73E63
:104B3000EB9C2B8AE6E55ABE7CD5CF5A3AD9E53DA7
:104B4000604B000800000020700000006C010008AD
:104B5000D04B0008700000205807000088010008B2
:104B6000000000000080BB440080BB440080BB44C8
:104B70000080BB440080BB4400E091440000000082
:104B800000002041C3F5DC415C8FB2400000484288
:104B90000000204200002041000000000000000052
:104BA00000000000000000000000000001020304FB
:104BB00001020304060708090204060800A24A04C9
:104BC00000000000000000000102030406070809BD
:0400000508000131BD
:00000001FF
